{
  "address": "0x5BD1D4a0B4570f2A902DEfa5a7d5e3C13bee5205",
  "abi": [
    {
      "inputs": [
        {
          "internalType": "address",
          "name": "_priceFeed",
          "type": "address"
        },
        {
          "internalType": "address",
          "name": "_vrfCoordinator",
          "type": "address"
        },
        {
          "internalType": "int8",
          "name": "_entranceFeeInUsd",
          "type": "int8"
        },
        {
          "internalType": "uint64",
          "name": "_subscriptionId",
          "type": "uint64"
        }
      ],
      "stateMutability": "nonpayable",
      "type": "constructor"
    },
    {
      "inputs": [],
      "name": "Lottery__LotteryNotOpen",
      "type": "error"
    },
    {
      "inputs": [],
      "name": "Lottery__SendMoreToEnterLottery",
      "type": "error"
    },
    {
      "inputs": [],
      "name": "Lottery__TransferFailed",
      "type": "error"
    },
    {
      "inputs": [
        {
          "internalType": "address",
          "name": "have",
          "type": "address"
        },
        {
          "internalType": "address",
          "name": "want",
          "type": "address"
        }
      ],
      "name": "OnlyCoordinatorCanFulfill",
      "type": "error"
    },
    {
      "anonymous": false,
      "inputs": [
        {
          "indexed": true,
          "internalType": "address",
          "name": "previousOwner",
          "type": "address"
        },
        {
          "indexed": true,
          "internalType": "address",
          "name": "newOwner",
          "type": "address"
        }
      ],
      "name": "OwnershipTransferred",
      "type": "event"
    },
    {
      "anonymous": false,
      "inputs": [
        {
          "indexed": false,
          "internalType": "address",
          "name": "_recentWinner",
          "type": "address"
        },
        {
          "indexed": false,
          "internalType": "uint256[]",
          "name": "_randomWords",
          "type": "uint256[]"
        }
      ],
      "name": "WinnerGotMoney",
      "type": "event"
    },
    {
      "inputs": [],
      "name": "endLottery",
      "outputs": [],
      "stateMutability": "nonpayable",
      "type": "function"
    },
    {
      "inputs": [],
      "name": "enter",
      "outputs": [],
      "stateMutability": "payable",
      "type": "function"
    },
    {
      "inputs": [],
      "name": "getEntranceFee",
      "outputs": [
        {
          "internalType": "uint256",
          "name": "",
          "type": "uint256"
        }
      ],
      "stateMutability": "view",
      "type": "function"
    },
    {
      "inputs": [],
      "name": "i_entranceFeeInUsd",
      "outputs": [
        {
          "internalType": "int8",
          "name": "",
          "type": "int8"
        }
      ],
      "stateMutability": "view",
      "type": "function"
    },
    {
      "inputs": [],
      "name": "i_owner",
      "outputs": [
        {
          "internalType": "address",
          "name": "",
          "type": "address"
        }
      ],
      "stateMutability": "view",
      "type": "function"
    },
    {
      "inputs": [],
      "name": "owner",
      "outputs": [
        {
          "internalType": "address",
          "name": "",
          "type": "address"
        }
      ],
      "stateMutability": "view",
      "type": "function"
    },
    {
      "inputs": [
        {
          "internalType": "uint256",
          "name": "requestId",
          "type": "uint256"
        },
        {
          "internalType": "uint256[]",
          "name": "randomWords",
          "type": "uint256[]"
        }
      ],
      "name": "rawFulfillRandomWords",
      "outputs": [],
      "stateMutability": "nonpayable",
      "type": "function"
    },
    {
      "inputs": [],
      "name": "renounceOwnership",
      "outputs": [],
      "stateMutability": "nonpayable",
      "type": "function"
    },
    {
      "inputs": [
        {
          "internalType": "address",
          "name": "",
          "type": "address"
        }
      ],
      "name": "s_addressToAmountDeposited",
      "outputs": [
        {
          "internalType": "uint256",
          "name": "",
          "type": "uint256"
        }
      ],
      "stateMutability": "view",
      "type": "function"
    },
    {
      "inputs": [],
      "name": "s_lotteryState",
      "outputs": [
        {
          "internalType": "enum Lottery.LotteryState",
          "name": "",
          "type": "uint8"
        }
      ],
      "stateMutability": "view",
      "type": "function"
    },
    {
      "inputs": [
        {
          "internalType": "uint256",
          "name": "",
          "type": "uint256"
        }
      ],
      "name": "s_participants",
      "outputs": [
        {
          "internalType": "address",
          "name": "",
          "type": "address"
        }
      ],
      "stateMutability": "view",
      "type": "function"
    },
    {
      "inputs": [],
      "name": "s_recentWinner",
      "outputs": [
        {
          "internalType": "address payable",
          "name": "",
          "type": "address"
        }
      ],
      "stateMutability": "view",
      "type": "function"
    },
    {
      "inputs": [],
      "name": "s_requestId",
      "outputs": [
        {
          "internalType": "uint256",
          "name": "",
          "type": "uint256"
        }
      ],
      "stateMutability": "view",
      "type": "function"
    },
    {
      "inputs": [],
      "name": "startLottery",
      "outputs": [],
      "stateMutability": "nonpayable",
      "type": "function"
    },
    {
      "inputs": [
        {
          "internalType": "address",
          "name": "newOwner",
          "type": "address"
        }
      ],
      "name": "transferOwnership",
      "outputs": [],
      "stateMutability": "nonpayable",
      "type": "function"
    }
  ],
  "transactionHash": "0x748fe09ad1d87822468cef5c1f6b79e2cb9526abd79b978d2fc6c64341afb7dd",
  "args": [
    "0x8A753747A1Fa494EC906cE90E9f37563A8AF630e",
    "0x6168499c0cFfCaCD319c818142124B7A15E857ab",
    50,
    "4262"
  ],
  "numDeployments": 2,
  "solcInputHash": "96e95bc361dbfae294f40b667ea139e8",
  "bytecode": "0x61010060405234801561001157600080fd5b5060405161105c38038061105c8339810160408190526100309161011e565b6001600160a01b038316608052610046336100b2565b3360a05260009190910b60c05260058054600160401b600160e81b03191669010000000000000000006001600160a01b039586160260ff60401b19161768010000000000000000176001600160401b0319166001600160401b039092169190911790551660e052610189565b600080546001600160a01b038381166001600160a01b0319831681178455604051919092169283917f8be0079c531659141344cd1fd0a4f28419497f9722a3daafe3b4186f6b6457e09190a35050565b80516001600160a01b038116811461011957600080fd5b919050565b6000806000806080858703121561013457600080fd5b61013d85610102565b935061014b60208601610102565b925060408501518060000b811461016157600080fd5b60608601519092506001600160401b038116811461017e57600080fd5b939692955090935050565b60805160a05160c05160e051610e8c6101d0600039600061052101526000818161012701526103c0015260006102a001526000818161061001526106520152610e8c6000f3fe6080604052600436106100e85760003560e01c80638638b0c61161008a578063dba6335f11610059578063dba6335f1461028e578063e89e106a146102c2578063e97dcb62146102d8578063f2fde38b146102e057600080fd5b80638638b0c6146101ea5780638da5cb5b146102225780638df5a6a414610240578063d4c8c3731461026057600080fd5b8063160344e2116100c6578063160344e2146101735780631fe543e31461018857806328498d92146101a8578063715018a6146101d557600080fd5b806309bc33a7146100ed5780630bc26cb4146101155780631593a8c71461015c575b600080fd5b3480156100f957600080fd5b50610102610300565b6040519081526020015b60405180910390f35b34801561012157600080fd5b506101497f000000000000000000000000000000000000000000000000000000000000000081565b60405160009190910b815260200161010c565b34801561016857600080fd5b506101716103f0565b005b34801561017f57600080fd5b506101716105a2565b34801561019457600080fd5b506101716101a3366004610ae9565b610605565b3480156101b457600080fd5b506101026101c3366004610bb3565b60016020526000908152604090205481565b3480156101e157600080fd5b5061017161068d565b3480156101f657600080fd5b5060035461020a906001600160a01b031681565b6040516001600160a01b03909116815260200161010c565b34801561022e57600080fd5b506000546001600160a01b031661020a565b34801561024c57600080fd5b5061020a61025b366004610be3565b6106c3565b34801561026c57600080fd5b5060055461028190600160401b900460ff1681565b60405161010c9190610c12565b34801561029a57600080fd5b5061020a7f000000000000000000000000000000000000000000000000000000000000000081565b3480156102ce57600080fd5b5061010260045481565b6101716106ed565b3480156102ec57600080fd5b506101716102fb366004610bb3565b6107a8565b600080600560099054906101000a90046001600160a01b03166001600160a01b031663feaf968c6040518163ffffffff1660e01b815260040160a06040518083038186803b15801561035157600080fd5b505afa158015610365573d6000803e3d6000fd5b505050506040513d601f19601f820116820180604052508101906103899190610c59565b50505091505060006305f5e100826103a19190610cd5565b905060006103b782670de0b6b3a7640000610cd5565b905060006103e77f0000000000000000000000000000000000000000000000000000000000000000820b83610d03565b95945050505050565b6000546001600160a01b031633146104235760405162461bcd60e51b815260040161041a90610d88565b60405180910390fd5b6000600554600160401b900460ff16600281111561044357610443610bfc565b146104615760405163823ea8bb60e01b815260040160405180910390fd5b6002546104a25760405162461bcd60e51b815260206004820152600f60248201526e4e6f207061727469636970616e747360881b604482015260640161041a565b600580546802000000000000000060ff60401b198216179091556040516305d3b1d360e41b81527fd89b2bf150e3b9e13446986e571fb9cab24b13cea0a43ea20a6049a85cc807cc600482015267ffffffffffffffff909116602482015260036044820152620186a06064820152600160848201526001600160a01b037f00000000000000000000000000000000000000000000000000000000000000001690635d3b1d309060a401602060405180830381600087803b15801561056557600080fd5b505af1158015610579573d6000803e3d6000fd5b505050506040513d601f19601f8201168201806040525081019061059d9190610dbd565b600455565b6000546001600160a01b031633146105cc5760405162461bcd60e51b815260040161041a90610d88565b6001600554600160401b900460ff1660028111156105ec576105ec610bfc565b146105f657600080fd5b6005805460ff60401b19169055565b336001600160a01b037f0000000000000000000000000000000000000000000000000000000000000000161461067f5760405163073e64fd60e21b81523360048201526001600160a01b037f000000000000000000000000000000000000000000000000000000000000000016602482015260440161041a565b6106898282610843565b5050565b6000546001600160a01b031633146106b75760405162461bcd60e51b815260040161041a90610d88565b6106c16000610a09565b565b600281815481106106d357600080fd5b6000918252602090912001546001600160a01b0316905081565b6000600554600160401b900460ff16600281111561070d5761070d610bfc565b1461072b5760405163823ea8bb60e01b815260040160405180910390fd5b610733610300565b34101561075357604051632901e30960e21b815260040160405180910390fd5b6002805460018181019092557f405787fa12a823e0f2b7631cc41b3ba8828b3321ca811111fa75cd3aa3bb5ace0180546001600160a01b03191633908117909155600090815260209190915260409020349055565b6000546001600160a01b031633146107d25760405162461bcd60e51b815260040161041a90610d88565b6001600160a01b0381166108375760405162461bcd60e51b815260206004820152602660248201527f4f776e61626c653a206e6577206f776e657220697320746865207a65726f206160448201526564647265737360d01b606482015260840161041a565b61084081610a09565b50565b6002600554600160401b900460ff16600281111561086357610863610bfc565b1461086d57600080fd5b60008160008151811061088257610882610dd6565b60200260200101511161089457600080fd5b60008151116108a257600080fd5b6002546108ae57600080fd5b6000600280549050826000815181106108c9576108c9610dd6565b60200260200101516108db9190610dec565b60025490915081106108ec57600080fd5b600281815481106108ff576108ff610dd6565b6000918252602082200154600380546001600160a01b0319166001600160a01b03909216918217905560405147908381818185875af1925050503d8060008114610965576040519150601f19603f3d011682016040523d82523d6000602084013e61096a565b606091505b505090508061098b5760405162e4a00960e51b815260040160405180910390fd5b60408051600081526020810191829052516109a891600291610a59565b506005805460ff60401b1916600160401b1790556003546040517f3cd1e164378087c10fd92c32274b2ab5a3536fe9fc7f3093db21479a5639a1f2916109fb916001600160a01b03909116908690610e00565b60405180910390a150505050565b600080546001600160a01b038381166001600160a01b0319831681178455604051919092169283917f8be0079c531659141344cd1fd0a4f28419497f9722a3daafe3b4186f6b6457e09190a35050565b828054828255906000526020600020908101928215610aae579160200282015b82811115610aae57825182546001600160a01b0319166001600160a01b03909116178255602090920191600190910190610a79565b50610aba929150610abe565b5090565b5b80821115610aba5760008155600101610abf565b634e487b7160e01b600052604160045260246000fd5b60008060408385031215610afc57600080fd5b8235915060208084013567ffffffffffffffff80821115610b1c57600080fd5b818601915086601f830112610b3057600080fd5b813581811115610b4257610b42610ad3565b8060051b604051601f19603f83011681018181108582111715610b6757610b67610ad3565b604052918252848201925083810185019189831115610b8557600080fd5b938501935b82851015610ba357843584529385019392850192610b8a565b8096505050505050509250929050565b600060208284031215610bc557600080fd5b81356001600160a01b0381168114610bdc57600080fd5b9392505050565b600060208284031215610bf557600080fd5b5035919050565b634e487b7160e01b600052602160045260246000fd5b6020810160038310610c3457634e487b7160e01b600052602160045260246000fd5b91905290565b805169ffffffffffffffffffff81168114610c5457600080fd5b919050565b600080600080600060a08688031215610c7157600080fd5b610c7a86610c3a565b9450602086015193506040860151925060608601519150610c9d60808701610c3a565b90509295509295909350565b634e487b7160e01b600052601260045260246000fd5b634e487b7160e01b600052601160045260246000fd5b600082610ce457610ce4610ca9565b600160ff1b821460001984141615610cfe57610cfe610cbf565b500590565b60006001600160ff1b0381841382841380821686840486111615610d2957610d29610cbf565b600160ff1b6000871282811687830589121615610d4857610d48610cbf565b60008712925087820587128484161615610d6457610d64610cbf565b87850587128184161615610d7a57610d7a610cbf565b505050929093029392505050565b6020808252818101527f4f776e61626c653a2063616c6c6572206973206e6f7420746865206f776e6572604082015260600190565b600060208284031215610dcf57600080fd5b5051919050565b634e487b7160e01b600052603260045260246000fd5b600082610dfb57610dfb610ca9565b500690565b6001600160a01b038316815260406020808301829052835191830182905260009184820191906060850190845b81811015610e4957845183529383019391830191600101610e2d565b509097965050505050505056fea2646970667358221220d77be17d8d10d4ce8e29182118f8060a9f3641c0955202590b217fbc3a5b60da64736f6c63430008090033",
  "devdoc": {
    "kind": "dev",
    "methods": {
      "owner()": {
        "details": "Returns the address of the current owner."
      },
      "renounceOwnership()": {
        "details": "Leaves the contract without owner. It will not be possible to call `onlyOwner` functions anymore. Can only be called by the current owner. NOTE: Renouncing ownership will leave the contract without an owner, thereby removing any functionality that is only available to the owner."
      },
      "transferOwnership(address)": {
        "details": "Transfers ownership of the contract to a new account (`newOwner`). Can only be called by the current owner."
      }
    },
    "version": 1
  },
  "userdoc": {
    "kind": "user",
    "methods": {},
    "version": 1
  },
  "storageLayout": {
    "storage": [
      {
        "astId": 1267,
        "contract": "contracts/Lottery.sol:Lottery",
        "label": "_owner",
        "offset": 0,
        "slot": "0",
        "type": "t_address"
      },
      {
        "astId": 8751,
        "contract": "contracts/Lottery.sol:Lottery",
        "label": "s_addressToAmountDeposited",
        "offset": 0,
        "slot": "1",
        "type": "t_mapping(t_address,t_uint256)"
      },
      {
        "astId": 8754,
        "contract": "contracts/Lottery.sol:Lottery",
        "label": "s_participants",
        "offset": 0,
        "slot": "2",
        "type": "t_array(t_address)dyn_storage"
      },
      {
        "astId": 8756,
        "contract": "contracts/Lottery.sol:Lottery",
        "label": "s_recentWinner",
        "offset": 0,
        "slot": "3",
        "type": "t_address_payable"
      },
      {
        "astId": 8758,
        "contract": "contracts/Lottery.sol:Lottery",
        "label": "s_requestId",
        "offset": 0,
        "slot": "4",
        "type": "t_uint256"
      },
      {
        "astId": 8760,
        "contract": "contracts/Lottery.sol:Lottery",
        "label": "s_subscriptionId",
        "offset": 0,
        "slot": "5",
        "type": "t_uint64"
      },
      {
        "astId": 8763,
        "contract": "contracts/Lottery.sol:Lottery",
        "label": "s_lotteryState",
        "offset": 8,
        "slot": "5",
        "type": "t_enum(LotteryState)8740"
      },
      {
        "astId": 8766,
        "contract": "contracts/Lottery.sol:Lottery",
        "label": "s_priceFeed",
        "offset": 9,
        "slot": "5",
        "type": "t_contract(AggregatorV3Interface)103"
      }
    ],
    "types": {
      "t_address": {
        "encoding": "inplace",
        "label": "address",
        "numberOfBytes": "20"
      },
      "t_address_payable": {
        "encoding": "inplace",
        "label": "address payable",
        "numberOfBytes": "20"
      },
      "t_array(t_address)dyn_storage": {
        "base": "t_address",
        "encoding": "dynamic_array",
        "label": "address[]",
        "numberOfBytes": "32"
      },
      "t_contract(AggregatorV3Interface)103": {
        "encoding": "inplace",
        "label": "contract AggregatorV3Interface",
        "numberOfBytes": "20"
      },
      "t_enum(LotteryState)8740": {
        "encoding": "inplace",
        "label": "enum Lottery.LotteryState",
        "numberOfBytes": "1"
      },
      "t_mapping(t_address,t_uint256)": {
        "encoding": "mapping",
        "key": "t_address",
        "label": "mapping(address => uint256)",
        "numberOfBytes": "32",
        "value": "t_uint256"
      },
      "t_uint256": {
        "encoding": "inplace",
        "label": "uint256",
        "numberOfBytes": "32"
      },
      "t_uint64": {
        "encoding": "inplace",
        "label": "uint64",
        "numberOfBytes": "8"
      }
    }
  }
}