{
  "address": "0x6C69C16991b439210fF057CF7bbc2f12C3C14E46",
  "abi": [
    {
      "inputs": [
        {
          "internalType": "address",
          "name": "_priceFeed",
          "type": "address"
        },
        {
          "internalType": "address",
          "name": "_vrfCoordinator",
          "type": "address"
        },
        {
          "internalType": "int8",
          "name": "_entranceFeeInUsd",
          "type": "int8"
        },
        {
          "internalType": "uint64",
          "name": "_subscriptionId",
          "type": "uint64"
        }
      ],
      "stateMutability": "nonpayable",
      "type": "constructor"
    },
    {
      "inputs": [],
      "name": "Lottery__LotteryNotOpen",
      "type": "error"
    },
    {
      "inputs": [],
      "name": "Lottery__NotTheOwner",
      "type": "error"
    },
    {
      "inputs": [],
      "name": "Lottery__SendMoreToEnterLottery",
      "type": "error"
    },
    {
      "inputs": [],
      "name": "Lottery__TransferFailed",
      "type": "error"
    },
    {
      "inputs": [
        {
          "internalType": "address",
          "name": "have",
          "type": "address"
        },
        {
          "internalType": "address",
          "name": "want",
          "type": "address"
        }
      ],
      "name": "OnlyCoordinatorCanFulfill",
      "type": "error"
    },
    {
      "anonymous": false,
      "inputs": [
        {
          "indexed": false,
          "internalType": "address",
          "name": "_recentWinner",
          "type": "address"
        },
        {
          "indexed": false,
          "internalType": "uint256[]",
          "name": "_randomWords",
          "type": "uint256[]"
        }
      ],
      "name": "WinnerGotMoney",
      "type": "event"
    },
    {
      "inputs": [],
      "name": "endLottery",
      "outputs": [],
      "stateMutability": "nonpayable",
      "type": "function"
    },
    {
      "inputs": [],
      "name": "enter",
      "outputs": [],
      "stateMutability": "payable",
      "type": "function"
    },
    {
      "inputs": [],
      "name": "getEntranceFee",
      "outputs": [
        {
          "internalType": "uint256",
          "name": "",
          "type": "uint256"
        }
      ],
      "stateMutability": "view",
      "type": "function"
    },
    {
      "inputs": [],
      "name": "i_entranceFeeInUsd",
      "outputs": [
        {
          "internalType": "int8",
          "name": "",
          "type": "int8"
        }
      ],
      "stateMutability": "view",
      "type": "function"
    },
    {
      "inputs": [],
      "name": "i_owner",
      "outputs": [
        {
          "internalType": "address",
          "name": "",
          "type": "address"
        }
      ],
      "stateMutability": "view",
      "type": "function"
    },
    {
      "inputs": [
        {
          "internalType": "uint256",
          "name": "requestId",
          "type": "uint256"
        },
        {
          "internalType": "uint256[]",
          "name": "randomWords",
          "type": "uint256[]"
        }
      ],
      "name": "rawFulfillRandomWords",
      "outputs": [],
      "stateMutability": "nonpayable",
      "type": "function"
    },
    {
      "inputs": [
        {
          "internalType": "address",
          "name": "",
          "type": "address"
        }
      ],
      "name": "s_addressToAmountDeposited",
      "outputs": [
        {
          "internalType": "uint256",
          "name": "",
          "type": "uint256"
        }
      ],
      "stateMutability": "view",
      "type": "function"
    },
    {
      "inputs": [],
      "name": "s_lotteryState",
      "outputs": [
        {
          "internalType": "enum Lottery.LotteryState",
          "name": "",
          "type": "uint8"
        }
      ],
      "stateMutability": "view",
      "type": "function"
    },
    {
      "inputs": [
        {
          "internalType": "uint256",
          "name": "",
          "type": "uint256"
        }
      ],
      "name": "s_participants",
      "outputs": [
        {
          "internalType": "address",
          "name": "",
          "type": "address"
        }
      ],
      "stateMutability": "view",
      "type": "function"
    },
    {
      "inputs": [],
      "name": "s_recentWinner",
      "outputs": [
        {
          "internalType": "address payable",
          "name": "",
          "type": "address"
        }
      ],
      "stateMutability": "view",
      "type": "function"
    },
    {
      "inputs": [],
      "name": "s_requestId",
      "outputs": [
        {
          "internalType": "uint256",
          "name": "",
          "type": "uint256"
        }
      ],
      "stateMutability": "view",
      "type": "function"
    },
    {
      "inputs": [],
      "name": "startLottery",
      "outputs": [],
      "stateMutability": "nonpayable",
      "type": "function"
    }
  ],
  "transactionHash": "0x8025572e7d04b5fbfe29ec85e4bf2c52299e366cbbb37783a93c9fa643e4772c",
  "args": [
    "0x8A753747A1Fa494EC906cE90E9f37563A8AF630e",
    "0x6168499c0cFfCaCD319c818142124B7A15E857ab",
    50,
    "4262"
  ],
  "numDeployments": 1,
  "solcInputHash": "28794a18f39d63a8970f0f4ace749bd4",
  "bytecode": "0x61010060405234801561001157600080fd5b50604051610e5d380380610e5d833981016040819052610030916100c6565b6001600160a01b0392831660808190523360a05260009290920b60c052600480549490931669010000000000000000000260ff60401b1916600160401b600160e81b03199094169390931768010000000000000000176001600160401b0319166001600160401b039390931692909217905560e052610131565b80516001600160a01b03811681146100c157600080fd5b919050565b600080600080608085870312156100dc57600080fd5b6100e5856100aa565b93506100f3602086016100aa565b925060408501518060000b811461010957600080fd5b60608601519092506001600160401b038116811461012657600080fd5b939692955090935050565b60805160a05160c05160e051610cd861018560003960006104a701526000818160e6015261032c01526000818161022c0152818161036701526105330152600081816105b501526105f70152610cd86000f3fe6080604052600436106100a75760003560e01c80638638b0c6116100645780638638b0c6146101945780638df5a6a4146101cc578063d4c8c373146101ec578063dba6335f1461021a578063e89e106a1461024e578063e97dcb621461026457600080fd5b806309bc33a7146100ac5780630bc26cb4146100d45780631593a8c71461011b578063160344e2146101325780631fe543e31461014757806328498d9214610167575b600080fd5b3480156100b857600080fd5b506100c161026c565b6040519081526020015b60405180910390f35b3480156100e057600080fd5b506101087f000000000000000000000000000000000000000000000000000000000000000081565b60405160009190910b81526020016100cb565b34801561012757600080fd5b5061013061035c565b005b34801561013e57600080fd5b50610130610528565b34801561015357600080fd5b5061013061016236600461096a565b6105aa565b34801561017357600080fd5b506100c1610182366004610a34565b60006020819052908152604090205481565b3480156101a057600080fd5b506002546101b4906001600160a01b031681565b6040516001600160a01b0390911681526020016100cb565b3480156101d857600080fd5b506101b46101e7366004610a64565b610632565b3480156101f857600080fd5b5060045461020d90600160401b900460ff1681565b6040516100cb9190610a93565b34801561022657600080fd5b506101b47f000000000000000000000000000000000000000000000000000000000000000081565b34801561025a57600080fd5b506100c160035481565b61013061065c565b600080600460099054906101000a90046001600160a01b03166001600160a01b031663feaf968c6040518163ffffffff1660e01b815260040160a06040518083038186803b1580156102bd57600080fd5b505afa1580156102d1573d6000803e3d6000fd5b505050506040513d601f19601f820116820180604052508101906102f59190610ada565b50505091505060006305f5e1008261030d9190610b56565b9050600061032382670de0b6b3a7640000610b56565b905060006103537f0000000000000000000000000000000000000000000000000000000000000000820b83610b84565b95945050505050565b336001600160a01b037f000000000000000000000000000000000000000000000000000000000000000016146103a55760405163183767f360e21b815260040160405180910390fd5b6000600454600160401b900460ff1660028111156103c5576103c5610a7d565b146103e35760405163823ea8bb60e01b815260040160405180910390fd5b6001546104295760405162461bcd60e51b815260206004820152600f60248201526e4e6f207061727469636970616e747360881b60448201526064015b60405180910390fd5b600480546802000000000000000060ff60401b1982161782556040516305d3b1d360e41b81527fd89b2bf150e3b9e13446986e571fb9cab24b13cea0a43ea20a6049a85cc807cc9281019290925267ffffffffffffffff16602482015260036044820152620186a06064820152600160848201526001600160a01b037f00000000000000000000000000000000000000000000000000000000000000001690635d3b1d309060a401602060405180830381600087803b1580156104eb57600080fd5b505af11580156104ff573d6000803e3d6000fd5b505050506040513d601f19601f820116820180604052508101906105239190610c09565b600355565b336001600160a01b037f000000000000000000000000000000000000000000000000000000000000000016146105715760405163183767f360e21b815260040160405180910390fd5b6001600454600160401b900460ff16600281111561059157610591610a7d565b1461059b57600080fd5b6004805460ff60401b19169055565b336001600160a01b037f000000000000000000000000000000000000000000000000000000000000000016146106245760405163073e64fd60e21b81523360048201526001600160a01b037f0000000000000000000000000000000000000000000000000000000000000000166024820152604401610420565b61062e8282610714565b5050565b6001818154811061064257600080fd5b6000918252602090912001546001600160a01b0316905081565b6000600454600160401b900460ff16600281111561067c5761067c610a7d565b1461069a5760405163823ea8bb60e01b815260040160405180910390fd5b6106a261026c565b3410156106c257604051632901e30960e21b815260040160405180910390fd5b600180548082019091557fb10e2d527612073b26eecdfd717e6a320cf44b4afac2b0732d9fcbe2b7fa0cf60180546001600160a01b031916339081179091556000908152602081905260409020349055565b6002600454600160401b900460ff16600281111561073457610734610a7d565b1461073e57600080fd5b60008160008151811061075357610753610c22565b60200260200101511161076557600080fd5b600081511161077357600080fd5b60015461077f57600080fd5b60006001805490508260008151811061079a5761079a610c22565b60200260200101516107ac9190610c38565b60015490915081106107bd57600080fd5b600181815481106107d0576107d0610c22565b6000918252602082200154600280546001600160a01b0319166001600160a01b03909216918217905560405147908381818185875af1925050503d8060008114610836576040519150601f19603f3d011682016040523d82523d6000602084013e61083b565b606091505b505090508061085c5760405162e4a00960e51b815260040160405180910390fd5b6040805160008152602081019182905251610879916001916108da565b506004805460ff60401b1916600160401b1790556002546040517f3cd1e164378087c10fd92c32274b2ab5a3536fe9fc7f3093db21479a5639a1f2916108cc916001600160a01b03909116908690610c4c565b60405180910390a150505050565b82805482825590600052602060002090810192821561092f579160200282015b8281111561092f57825182546001600160a01b0319166001600160a01b039091161782556020909201916001909101906108fa565b5061093b92915061093f565b5090565b5b8082111561093b5760008155600101610940565b634e487b7160e01b600052604160045260246000fd5b6000806040838503121561097d57600080fd5b8235915060208084013567ffffffffffffffff8082111561099d57600080fd5b818601915086601f8301126109b157600080fd5b8135818111156109c3576109c3610954565b8060051b604051601f19603f830116810181811085821117156109e8576109e8610954565b604052918252848201925083810185019189831115610a0657600080fd5b938501935b82851015610a2457843584529385019392850192610a0b565b8096505050505050509250929050565b600060208284031215610a4657600080fd5b81356001600160a01b0381168114610a5d57600080fd5b9392505050565b600060208284031215610a7657600080fd5b5035919050565b634e487b7160e01b600052602160045260246000fd5b6020810160038310610ab557634e487b7160e01b600052602160045260246000fd5b91905290565b805169ffffffffffffffffffff81168114610ad557600080fd5b919050565b600080600080600060a08688031215610af257600080fd5b610afb86610abb565b9450602086015193506040860151925060608601519150610b1e60808701610abb565b90509295509295909350565b634e487b7160e01b600052601260045260246000fd5b634e487b7160e01b600052601160045260246000fd5b600082610b6557610b65610b2a565b600160ff1b821460001984141615610b7f57610b7f610b40565b500590565b60006001600160ff1b0381841382841380821686840486111615610baa57610baa610b40565b600160ff1b6000871282811687830589121615610bc957610bc9610b40565b60008712925087820587128484161615610be557610be5610b40565b87850587128184161615610bfb57610bfb610b40565b505050929093029392505050565b600060208284031215610c1b57600080fd5b5051919050565b634e487b7160e01b600052603260045260246000fd5b600082610c4757610c47610b2a565b500690565b6001600160a01b038316815260406020808301829052835191830182905260009184820191906060850190845b81811015610c9557845183529383019391830191600101610c79565b509097965050505050505056fea26469706673582212202501a5e46b40ba42c20a9c240143edb9073dd19af857f7734fae6a2f584bcd8664736f6c63430008090033",
  "devdoc": {
    "kind": "dev",
    "methods": {},
    "version": 1
  },
  "userdoc": {
    "kind": "user",
    "methods": {},
    "version": 1
  },
  "storageLayout": {
    "storage": [
      {
        "astId": 897,
        "contract": "contracts/Lottery.sol:Lottery",
        "label": "s_addressToAmountDeposited",
        "offset": 0,
        "slot": "0",
        "type": "t_mapping(t_address,t_uint256)"
      },
      {
        "astId": 900,
        "contract": "contracts/Lottery.sol:Lottery",
        "label": "s_participants",
        "offset": 0,
        "slot": "1",
        "type": "t_array(t_address)dyn_storage"
      },
      {
        "astId": 902,
        "contract": "contracts/Lottery.sol:Lottery",
        "label": "s_recentWinner",
        "offset": 0,
        "slot": "2",
        "type": "t_address_payable"
      },
      {
        "astId": 904,
        "contract": "contracts/Lottery.sol:Lottery",
        "label": "s_requestId",
        "offset": 0,
        "slot": "3",
        "type": "t_uint256"
      },
      {
        "astId": 906,
        "contract": "contracts/Lottery.sol:Lottery",
        "label": "s_subscriptionId",
        "offset": 0,
        "slot": "4",
        "type": "t_uint64"
      },
      {
        "astId": 909,
        "contract": "contracts/Lottery.sol:Lottery",
        "label": "s_lotteryState",
        "offset": 8,
        "slot": "4",
        "type": "t_enum(LotteryState)886"
      },
      {
        "astId": 912,
        "contract": "contracts/Lottery.sol:Lottery",
        "label": "s_priceFeed",
        "offset": 9,
        "slot": "4",
        "type": "t_contract(AggregatorV3Interface)103"
      }
    ],
    "types": {
      "t_address": {
        "encoding": "inplace",
        "label": "address",
        "numberOfBytes": "20"
      },
      "t_address_payable": {
        "encoding": "inplace",
        "label": "address payable",
        "numberOfBytes": "20"
      },
      "t_array(t_address)dyn_storage": {
        "base": "t_address",
        "encoding": "dynamic_array",
        "label": "address[]",
        "numberOfBytes": "32"
      },
      "t_contract(AggregatorV3Interface)103": {
        "encoding": "inplace",
        "label": "contract AggregatorV3Interface",
        "numberOfBytes": "20"
      },
      "t_enum(LotteryState)886": {
        "encoding": "inplace",
        "label": "enum Lottery.LotteryState",
        "numberOfBytes": "1"
      },
      "t_mapping(t_address,t_uint256)": {
        "encoding": "mapping",
        "key": "t_address",
        "label": "mapping(address => uint256)",
        "numberOfBytes": "32",
        "value": "t_uint256"
      },
      "t_uint256": {
        "encoding": "inplace",
        "label": "uint256",
        "numberOfBytes": "32"
      },
      "t_uint64": {
        "encoding": "inplace",
        "label": "uint64",
        "numberOfBytes": "8"
      }
    }
  }
}