{
  "address": "0x03c2F2816c97a7A5D08d05ec87BCe65310dc5D58",
  "abi": [
    {
      "inputs": [
        {
          "internalType": "address",
          "name": "_priceFeed",
          "type": "address"
        },
        {
          "internalType": "address",
          "name": "_vrfCoordinator",
          "type": "address"
        },
        {
          "internalType": "int8",
          "name": "_entranceFeeInUsd",
          "type": "int8"
        },
        {
          "internalType": "uint64",
          "name": "_subscriptionId",
          "type": "uint64"
        },
        {
          "internalType": "uint256",
          "name": "_maxParticpantsLimit",
          "type": "uint256"
        }
      ],
      "stateMutability": "nonpayable",
      "type": "constructor"
    },
    {
      "inputs": [],
      "name": "Lottery__LotteryNotOpen",
      "type": "error"
    },
    {
      "inputs": [],
      "name": "Lottery__ParticipantLimitExceeded",
      "type": "error"
    },
    {
      "inputs": [],
      "name": "Lottery__SendMoreToEnterLottery",
      "type": "error"
    },
    {
      "inputs": [],
      "name": "Lottery__TransferFailed",
      "type": "error"
    },
    {
      "inputs": [
        {
          "internalType": "address",
          "name": "have",
          "type": "address"
        },
        {
          "internalType": "address",
          "name": "want",
          "type": "address"
        }
      ],
      "name": "OnlyCoordinatorCanFulfill",
      "type": "error"
    },
    {
      "anonymous": false,
      "inputs": [
        {
          "indexed": true,
          "internalType": "address",
          "name": "previousOwner",
          "type": "address"
        },
        {
          "indexed": true,
          "internalType": "address",
          "name": "newOwner",
          "type": "address"
        }
      ],
      "name": "OwnershipTransferred",
      "type": "event"
    },
    {
      "anonymous": false,
      "inputs": [
        {
          "indexed": false,
          "internalType": "address",
          "name": "_participant",
          "type": "address"
        },
        {
          "indexed": false,
          "internalType": "uint256",
          "name": "_amountDeposited",
          "type": "uint256"
        }
      ],
      "name": "PlayerEnteredLottery",
      "type": "event"
    },
    {
      "anonymous": false,
      "inputs": [
        {
          "indexed": false,
          "internalType": "address",
          "name": "_recentWinner",
          "type": "address"
        },
        {
          "indexed": false,
          "internalType": "uint256[]",
          "name": "_randomWords",
          "type": "uint256[]"
        }
      ],
      "name": "WinnerGotMoney",
      "type": "event"
    },
    {
      "inputs": [],
      "name": "endLottery",
      "outputs": [],
      "stateMutability": "nonpayable",
      "type": "function"
    },
    {
      "inputs": [],
      "name": "enter",
      "outputs": [],
      "stateMutability": "payable",
      "type": "function"
    },
    {
      "inputs": [],
      "name": "getEntranceFee",
      "outputs": [
        {
          "internalType": "uint256",
          "name": "",
          "type": "uint256"
        }
      ],
      "stateMutability": "view",
      "type": "function"
    },
    {
      "inputs": [],
      "name": "getParticipantsLen",
      "outputs": [
        {
          "internalType": "uint256",
          "name": "",
          "type": "uint256"
        }
      ],
      "stateMutability": "view",
      "type": "function"
    },
    {
      "inputs": [],
      "name": "i_entranceFeeInUsd",
      "outputs": [
        {
          "internalType": "int8",
          "name": "",
          "type": "int8"
        }
      ],
      "stateMutability": "view",
      "type": "function"
    },
    {
      "inputs": [],
      "name": "owner",
      "outputs": [
        {
          "internalType": "address",
          "name": "",
          "type": "address"
        }
      ],
      "stateMutability": "view",
      "type": "function"
    },
    {
      "inputs": [
        {
          "internalType": "uint256",
          "name": "requestId",
          "type": "uint256"
        },
        {
          "internalType": "uint256[]",
          "name": "randomWords",
          "type": "uint256[]"
        }
      ],
      "name": "rawFulfillRandomWords",
      "outputs": [],
      "stateMutability": "nonpayable",
      "type": "function"
    },
    {
      "inputs": [],
      "name": "renounceOwnership",
      "outputs": [],
      "stateMutability": "nonpayable",
      "type": "function"
    },
    {
      "inputs": [
        {
          "internalType": "address",
          "name": "",
          "type": "address"
        }
      ],
      "name": "s_addressToAmountDeposited",
      "outputs": [
        {
          "internalType": "uint256",
          "name": "",
          "type": "uint256"
        }
      ],
      "stateMutability": "view",
      "type": "function"
    },
    {
      "inputs": [
        {
          "internalType": "address",
          "name": "",
          "type": "address"
        }
      ],
      "name": "s_isParticipant",
      "outputs": [
        {
          "internalType": "bool",
          "name": "",
          "type": "bool"
        }
      ],
      "stateMutability": "view",
      "type": "function"
    },
    {
      "inputs": [],
      "name": "s_lotteryState",
      "outputs": [
        {
          "internalType": "enum Lottery.LotteryState",
          "name": "",
          "type": "uint8"
        }
      ],
      "stateMutability": "view",
      "type": "function"
    },
    {
      "inputs": [],
      "name": "s_maxParticpantsLimit",
      "outputs": [
        {
          "internalType": "uint256",
          "name": "",
          "type": "uint256"
        }
      ],
      "stateMutability": "view",
      "type": "function"
    },
    {
      "inputs": [
        {
          "internalType": "uint256",
          "name": "",
          "type": "uint256"
        }
      ],
      "name": "s_participants",
      "outputs": [
        {
          "internalType": "address",
          "name": "",
          "type": "address"
        }
      ],
      "stateMutability": "view",
      "type": "function"
    },
    {
      "inputs": [],
      "name": "s_recentWinner",
      "outputs": [
        {
          "internalType": "address payable",
          "name": "",
          "type": "address"
        }
      ],
      "stateMutability": "view",
      "type": "function"
    },
    {
      "inputs": [],
      "name": "s_requestId",
      "outputs": [
        {
          "internalType": "uint256",
          "name": "",
          "type": "uint256"
        }
      ],
      "stateMutability": "view",
      "type": "function"
    },
    {
      "inputs": [
        {
          "internalType": "uint256",
          "name": "_newLimit",
          "type": "uint256"
        }
      ],
      "name": "setMaxParticipantsLimit",
      "outputs": [],
      "stateMutability": "nonpayable",
      "type": "function"
    },
    {
      "inputs": [],
      "name": "startLottery",
      "outputs": [],
      "stateMutability": "nonpayable",
      "type": "function"
    },
    {
      "inputs": [
        {
          "internalType": "address",
          "name": "newOwner",
          "type": "address"
        }
      ],
      "name": "transferOwnership",
      "outputs": [],
      "stateMutability": "nonpayable",
      "type": "function"
    }
  ],
  "transactionHash": "0xbb6121a72f14c936731bd25578612e55b7497714b850d93a9b51e5cf69cc3c56",
  "args": [
    "0x8A753747A1Fa494EC906cE90E9f37563A8AF630e",
    "0x6168499c0cFfCaCD319c818142124B7A15E857ab",
    50,
    "4262",
    3
  ],
  "numDeployments": 4,
  "solcInputHash": "caa685aa2f7a67edf4c18853db8b820c",
  "bytecode": "0x60e060405234801561001057600080fd5b5060405161118438038061118483398101604081905261002f9161011d565b6001600160a01b038416608052610045336100b1565b60009290920b60a05260078054600160401b600160e81b03191669010000000000000000006001600160a01b039687160260ff60401b19161768010000000000000000176001600160401b0319166001600160401b03929092169190911790556006551660c052610194565b600080546001600160a01b038381166001600160a01b0319831681178455604051919092169283917f8be0079c531659141344cd1fd0a4f28419497f9722a3daafe3b4186f6b6457e09190a35050565b80516001600160a01b038116811461011857600080fd5b919050565b600080600080600060a0868803121561013557600080fd5b61013e86610101565b945061014c60208701610101565b935060408601518060000b811461016257600080fd5b60608701519093506001600160401b038116811461017f57600080fd5b80925050608086015190509295509295909350565b60805160a05160c051610fb36101d16000396000610599015260008181610148015261043801526000818161068801526106ca0152610fb36000f3fe6080604052600436106101095760003560e01c80638638b0c611610095578063d4c8c37311610064578063d4c8c373146102f6578063e89e106a14610324578063e97dcb621461033a578063f2fde38b14610342578063f98ceb151461036257600080fd5b80638638b0c6146102605780638da5cb5b146102985780638df5a6a4146102b6578063cf75b2cc146102d657600080fd5b80631fe543e3116100dc5780631fe543e3146101a957806320dff34e146101c957806328498d92146102095780635d91bb8214610236578063715018a61461024b57600080fd5b806309bc33a71461010e5780630bc26cb4146101365780631593a8c71461017d578063160344e214610194575b600080fd5b34801561011a57600080fd5b50610123610378565b6040519081526020015b60405180910390f35b34801561014257600080fd5b5061016a7f000000000000000000000000000000000000000000000000000000000000000081565b60405160009190910b815260200161012d565b34801561018957600080fd5b50610192610468565b005b3480156101a057600080fd5b5061019261061a565b3480156101b557600080fd5b506101926101c4366004610c10565b61067d565b3480156101d557600080fd5b506101f96101e4366004610cda565b60026020526000908152604090205460ff1681565b604051901515815260200161012d565b34801561021557600080fd5b50610123610224366004610cda565b60016020526000908152604090205481565b34801561024257600080fd5b50600354610123565b34801561025757600080fd5b50610192610705565b34801561026c57600080fd5b50600454610280906001600160a01b031681565b6040516001600160a01b03909116815260200161012d565b3480156102a457600080fd5b506000546001600160a01b0316610280565b3480156102c257600080fd5b506102806102d1366004610d0a565b61073b565b3480156102e257600080fd5b506101926102f1366004610d0a565b610765565b34801561030257600080fd5b5060075461031790600160401b900460ff1681565b60405161012d9190610d39565b34801561033057600080fd5b5061012360055481565b610192610794565b34801561034e57600080fd5b5061019261035d366004610cda565b6108db565b34801561036e57600080fd5b5061012360065481565b600080600760099054906101000a90046001600160a01b03166001600160a01b031663feaf968c6040518163ffffffff1660e01b815260040160a06040518083038186803b1580156103c957600080fd5b505afa1580156103dd573d6000803e3d6000fd5b505050506040513d601f19601f820116820180604052508101906104019190610d80565b50505091505060006305f5e100826104199190610dfc565b9050600061042f82670de0b6b3a7640000610dfc565b9050600061045f7f0000000000000000000000000000000000000000000000000000000000000000820b83610e2a565b95945050505050565b6000546001600160a01b0316331461049b5760405162461bcd60e51b815260040161049290610eaf565b60405180910390fd5b6000600754600160401b900460ff1660028111156104bb576104bb610d23565b146104d95760405163823ea8bb60e01b815260040160405180910390fd5b60035461051a5760405162461bcd60e51b815260206004820152600f60248201526e4e6f207061727469636970616e747360881b6044820152606401610492565b600780546802000000000000000060ff60401b198216179091556040516305d3b1d360e41b81527fd89b2bf150e3b9e13446986e571fb9cab24b13cea0a43ea20a6049a85cc807cc600482015267ffffffffffffffff909116602482015260036044820152620186a06064820152600160848201526001600160a01b037f00000000000000000000000000000000000000000000000000000000000000001690635d3b1d309060a401602060405180830381600087803b1580156105dd57600080fd5b505af11580156105f1573d6000803e3d6000fd5b505050506040513d601f19601f820116820180604052508101906106159190610ee4565b600555565b6000546001600160a01b031633146106445760405162461bcd60e51b815260040161049290610eaf565b6001600754600160401b900460ff16600281111561066457610664610d23565b1461066e57600080fd5b6007805460ff60401b19169055565b336001600160a01b037f000000000000000000000000000000000000000000000000000000000000000016146106f75760405163073e64fd60e21b81523360048201526001600160a01b037f0000000000000000000000000000000000000000000000000000000000000000166024820152604401610492565b6107018282610976565b5050565b6000546001600160a01b0316331461072f5760405162461bcd60e51b815260040161049290610eaf565b6107396000610b30565b565b6003818154811061074b57600080fd5b6000918252602090912001546001600160a01b0316905081565b6000546001600160a01b0316331461078f5760405162461bcd60e51b815260040161049290610eaf565b600655565b6000600754600160401b900460ff1660028111156107b4576107b4610d23565b146107d25760405163823ea8bb60e01b815260040160405180910390fd5b6107da610378565b3410156107fa57604051632901e30960e21b815260040160405180910390fd5b6006546003541061081e5760405163993473e960e01b815260040160405180910390fd5b3360009081526002602052604090205460ff1661087857600380546001810182556000919091527fc2575a0e9e593c00f959f8c92f12db2869c3395a3b0502d05e2516446f71f85b0180546001600160a01b031916331790555b33600081815260016020818152604080842034908190556002835293819020805460ff191690931790925581519384528301919091527ff95d19afcfb10921fb16ee6d59fa06900c0b95dd3ef561635442287c95f1f91d910160405180910390a1565b6000546001600160a01b031633146109055760405162461bcd60e51b815260040161049290610eaf565b6001600160a01b03811661096a5760405162461bcd60e51b815260206004820152602660248201527f4f776e61626c653a206e6577206f776e657220697320746865207a65726f206160448201526564647265737360d01b6064820152608401610492565b61097381610b30565b50565b6002600754600160401b900460ff16600281111561099657610996610d23565b146109a057600080fd5b6000816000815181106109b5576109b5610efd565b6020026020010151116109c757600080fd5b60008151116109d557600080fd5b6000600380549050826000815181106109f0576109f0610efd565b6020026020010151610a029190610f13565b6003549091508110610a1357600080fd5b60038181548110610a2657610a26610efd565b6000918252602082200154600480546001600160a01b0319166001600160a01b03909216918217905560405147908381818185875af1925050503d8060008114610a8c576040519150601f19603f3d011682016040523d82523d6000602084013e610a91565b606091505b5050905080610ab25760405162e4a00960e51b815260040160405180910390fd5b6040805160008152602081019182905251610acf91600391610b80565b506007805460ff60401b1916600160401b1790556004546040517f3cd1e164378087c10fd92c32274b2ab5a3536fe9fc7f3093db21479a5639a1f291610b22916001600160a01b03909116908690610f27565b60405180910390a150505050565b600080546001600160a01b038381166001600160a01b0319831681178455604051919092169283917f8be0079c531659141344cd1fd0a4f28419497f9722a3daafe3b4186f6b6457e09190a35050565b828054828255906000526020600020908101928215610bd5579160200282015b82811115610bd557825182546001600160a01b0319166001600160a01b03909116178255602090920191600190910190610ba0565b50610be1929150610be5565b5090565b5b80821115610be15760008155600101610be6565b634e487b7160e01b600052604160045260246000fd5b60008060408385031215610c2357600080fd5b8235915060208084013567ffffffffffffffff80821115610c4357600080fd5b818601915086601f830112610c5757600080fd5b813581811115610c6957610c69610bfa565b8060051b604051601f19603f83011681018181108582111715610c8e57610c8e610bfa565b604052918252848201925083810185019189831115610cac57600080fd5b938501935b82851015610cca57843584529385019392850192610cb1565b8096505050505050509250929050565b600060208284031215610cec57600080fd5b81356001600160a01b0381168114610d0357600080fd5b9392505050565b600060208284031215610d1c57600080fd5b5035919050565b634e487b7160e01b600052602160045260246000fd5b6020810160038310610d5b57634e487b7160e01b600052602160045260246000fd5b91905290565b805169ffffffffffffffffffff81168114610d7b57600080fd5b919050565b600080600080600060a08688031215610d9857600080fd5b610da186610d61565b9450602086015193506040860151925060608601519150610dc460808701610d61565b90509295509295909350565b634e487b7160e01b600052601260045260246000fd5b634e487b7160e01b600052601160045260246000fd5b600082610e0b57610e0b610dd0565b600160ff1b821460001984141615610e2557610e25610de6565b500590565b60006001600160ff1b0381841382841380821686840486111615610e5057610e50610de6565b600160ff1b6000871282811687830589121615610e6f57610e6f610de6565b60008712925087820587128484161615610e8b57610e8b610de6565b87850587128184161615610ea157610ea1610de6565b505050929093029392505050565b6020808252818101527f4f776e61626c653a2063616c6c6572206973206e6f7420746865206f776e6572604082015260600190565b600060208284031215610ef657600080fd5b5051919050565b634e487b7160e01b600052603260045260246000fd5b600082610f2257610f22610dd0565b500690565b6001600160a01b038316815260406020808301829052835191830182905260009184820191906060850190845b81811015610f7057845183529383019391830191600101610f54565b509097965050505050505056fea2646970667358221220ca8d68ca4b7ae8f47f28966ce5c244614b94eaadc5bbf18aca4b7da1ce2988a664736f6c63430008090033",
  "devdoc": {
    "kind": "dev",
    "methods": {
      "owner()": {
        "details": "Returns the address of the current owner."
      },
      "renounceOwnership()": {
        "details": "Leaves the contract without owner. It will not be possible to call `onlyOwner` functions anymore. Can only be called by the current owner. NOTE: Renouncing ownership will leave the contract without an owner, thereby removing any functionality that is only available to the owner."
      },
      "transferOwnership(address)": {
        "details": "Transfers ownership of the contract to a new account (`newOwner`). Can only be called by the current owner."
      }
    },
    "version": 1
  },
  "userdoc": {
    "kind": "user",
    "methods": {},
    "version": 1
  },
  "storageLayout": {
    "storage": [
      {
        "astId": 874,
        "contract": "contracts/Lottery.sol:Lottery",
        "label": "_owner",
        "offset": 0,
        "slot": "0",
        "type": "t_address"
      },
      {
        "astId": 1025,
        "contract": "contracts/Lottery.sol:Lottery",
        "label": "s_addressToAmountDeposited",
        "offset": 0,
        "slot": "1",
        "type": "t_mapping(t_address,t_uint256)"
      },
      {
        "astId": 1029,
        "contract": "contracts/Lottery.sol:Lottery",
        "label": "s_isParticipant",
        "offset": 0,
        "slot": "2",
        "type": "t_mapping(t_address,t_bool)"
      },
      {
        "astId": 1032,
        "contract": "contracts/Lottery.sol:Lottery",
        "label": "s_participants",
        "offset": 0,
        "slot": "3",
        "type": "t_array(t_address)dyn_storage"
      },
      {
        "astId": 1034,
        "contract": "contracts/Lottery.sol:Lottery",
        "label": "s_recentWinner",
        "offset": 0,
        "slot": "4",
        "type": "t_address_payable"
      },
      {
        "astId": 1036,
        "contract": "contracts/Lottery.sol:Lottery",
        "label": "s_requestId",
        "offset": 0,
        "slot": "5",
        "type": "t_uint256"
      },
      {
        "astId": 1038,
        "contract": "contracts/Lottery.sol:Lottery",
        "label": "s_maxParticpantsLimit",
        "offset": 0,
        "slot": "6",
        "type": "t_uint256"
      },
      {
        "astId": 1040,
        "contract": "contracts/Lottery.sol:Lottery",
        "label": "s_subscriptionId",
        "offset": 0,
        "slot": "7",
        "type": "t_uint64"
      },
      {
        "astId": 1043,
        "contract": "contracts/Lottery.sol:Lottery",
        "label": "s_lotteryState",
        "offset": 8,
        "slot": "7",
        "type": "t_enum(LotteryState)1016"
      },
      {
        "astId": 1046,
        "contract": "contracts/Lottery.sol:Lottery",
        "label": "s_priceFeed",
        "offset": 9,
        "slot": "7",
        "type": "t_contract(AggregatorV3Interface)103"
      }
    ],
    "types": {
      "t_address": {
        "encoding": "inplace",
        "label": "address",
        "numberOfBytes": "20"
      },
      "t_address_payable": {
        "encoding": "inplace",
        "label": "address payable",
        "numberOfBytes": "20"
      },
      "t_array(t_address)dyn_storage": {
        "base": "t_address",
        "encoding": "dynamic_array",
        "label": "address[]",
        "numberOfBytes": "32"
      },
      "t_bool": {
        "encoding": "inplace",
        "label": "bool",
        "numberOfBytes": "1"
      },
      "t_contract(AggregatorV3Interface)103": {
        "encoding": "inplace",
        "label": "contract AggregatorV3Interface",
        "numberOfBytes": "20"
      },
      "t_enum(LotteryState)1016": {
        "encoding": "inplace",
        "label": "enum Lottery.LotteryState",
        "numberOfBytes": "1"
      },
      "t_mapping(t_address,t_bool)": {
        "encoding": "mapping",
        "key": "t_address",
        "label": "mapping(address => bool)",
        "numberOfBytes": "32",
        "value": "t_bool"
      },
      "t_mapping(t_address,t_uint256)": {
        "encoding": "mapping",
        "key": "t_address",
        "label": "mapping(address => uint256)",
        "numberOfBytes": "32",
        "value": "t_uint256"
      },
      "t_uint256": {
        "encoding": "inplace",
        "label": "uint256",
        "numberOfBytes": "32"
      },
      "t_uint64": {
        "encoding": "inplace",
        "label": "uint64",
        "numberOfBytes": "8"
      }
    }
  }
}