{
  "address": "0xc7766Bd2112b8617EC7942c06d67274716D13C54",
  "abi": [
    {
      "inputs": [
        {
          "internalType": "uint256",
          "name": "_minParticpantsLimit",
          "type": "uint256"
        },
        {
          "internalType": "address",
          "name": "_priceFeed",
          "type": "address"
        },
        {
          "internalType": "address",
          "name": "_vrfCoordinator",
          "type": "address"
        },
        {
          "internalType": "int8",
          "name": "_entranceFeeInUsd",
          "type": "int8"
        },
        {
          "internalType": "uint64",
          "name": "_subscriptionId",
          "type": "uint64"
        }
      ],
      "stateMutability": "nonpayable",
      "type": "constructor"
    },
    {
      "inputs": [],
      "name": "Lottery__LotteryNotOpen",
      "type": "error"
    },
    {
      "inputs": [],
      "name": "Lottery__ParticipantCountIsLow",
      "type": "error"
    },
    {
      "inputs": [],
      "name": "Lottery__SendMoreToEnterLottery",
      "type": "error"
    },
    {
      "inputs": [],
      "name": "Lottery__TransferFailed",
      "type": "error"
    },
    {
      "inputs": [
        {
          "internalType": "address",
          "name": "have",
          "type": "address"
        },
        {
          "internalType": "address",
          "name": "want",
          "type": "address"
        }
      ],
      "name": "OnlyCoordinatorCanFulfill",
      "type": "error"
    },
    {
      "anonymous": false,
      "inputs": [
        {
          "indexed": true,
          "internalType": "address",
          "name": "previousOwner",
          "type": "address"
        },
        {
          "indexed": true,
          "internalType": "address",
          "name": "newOwner",
          "type": "address"
        }
      ],
      "name": "OwnershipTransferred",
      "type": "event"
    },
    {
      "anonymous": false,
      "inputs": [
        {
          "indexed": false,
          "internalType": "address",
          "name": "_participant",
          "type": "address"
        },
        {
          "indexed": false,
          "internalType": "uint256",
          "name": "_amountDeposited",
          "type": "uint256"
        }
      ],
      "name": "PlayerEnteredLottery",
      "type": "event"
    },
    {
      "anonymous": false,
      "inputs": [
        {
          "indexed": false,
          "internalType": "address",
          "name": "_recentWinner",
          "type": "address"
        },
        {
          "indexed": false,
          "internalType": "uint256[]",
          "name": "_randomWords",
          "type": "uint256[]"
        }
      ],
      "name": "WinnerGotMoney",
      "type": "event"
    },
    {
      "inputs": [],
      "name": "endLottery",
      "outputs": [],
      "stateMutability": "nonpayable",
      "type": "function"
    },
    {
      "inputs": [],
      "name": "enter",
      "outputs": [],
      "stateMutability": "payable",
      "type": "function"
    },
    {
      "inputs": [],
      "name": "getEntranceFee",
      "outputs": [
        {
          "internalType": "uint256",
          "name": "",
          "type": "uint256"
        }
      ],
      "stateMutability": "view",
      "type": "function"
    },
    {
      "inputs": [],
      "name": "getParticipantsLen",
      "outputs": [
        {
          "internalType": "uint256",
          "name": "",
          "type": "uint256"
        }
      ],
      "stateMutability": "view",
      "type": "function"
    },
    {
      "inputs": [],
      "name": "owner",
      "outputs": [
        {
          "internalType": "address",
          "name": "",
          "type": "address"
        }
      ],
      "stateMutability": "view",
      "type": "function"
    },
    {
      "inputs": [
        {
          "internalType": "uint256",
          "name": "requestId",
          "type": "uint256"
        },
        {
          "internalType": "uint256[]",
          "name": "randomWords",
          "type": "uint256[]"
        }
      ],
      "name": "rawFulfillRandomWords",
      "outputs": [],
      "stateMutability": "nonpayable",
      "type": "function"
    },
    {
      "inputs": [],
      "name": "renounceOwnership",
      "outputs": [],
      "stateMutability": "nonpayable",
      "type": "function"
    },
    {
      "inputs": [
        {
          "internalType": "address",
          "name": "",
          "type": "address"
        }
      ],
      "name": "s_addressToAmountDeposited",
      "outputs": [
        {
          "internalType": "uint256",
          "name": "",
          "type": "uint256"
        }
      ],
      "stateMutability": "view",
      "type": "function"
    },
    {
      "inputs": [],
      "name": "s_entranceFeeInUsd",
      "outputs": [
        {
          "internalType": "int8",
          "name": "",
          "type": "int8"
        }
      ],
      "stateMutability": "view",
      "type": "function"
    },
    {
      "inputs": [
        {
          "internalType": "address",
          "name": "",
          "type": "address"
        }
      ],
      "name": "s_isParticipant",
      "outputs": [
        {
          "internalType": "bool",
          "name": "",
          "type": "bool"
        }
      ],
      "stateMutability": "view",
      "type": "function"
    },
    {
      "inputs": [],
      "name": "s_lotteryDuration",
      "outputs": [
        {
          "internalType": "uint32",
          "name": "",
          "type": "uint32"
        }
      ],
      "stateMutability": "view",
      "type": "function"
    },
    {
      "inputs": [],
      "name": "s_lotteryEndTimestamp",
      "outputs": [
        {
          "internalType": "uint256",
          "name": "",
          "type": "uint256"
        }
      ],
      "stateMutability": "view",
      "type": "function"
    },
    {
      "inputs": [],
      "name": "s_lotteryState",
      "outputs": [
        {
          "internalType": "enum Lottery.LotteryState",
          "name": "",
          "type": "uint8"
        }
      ],
      "stateMutability": "view",
      "type": "function"
    },
    {
      "inputs": [],
      "name": "s_minParticpantsLimit",
      "outputs": [
        {
          "internalType": "uint256",
          "name": "",
          "type": "uint256"
        }
      ],
      "stateMutability": "view",
      "type": "function"
    },
    {
      "inputs": [
        {
          "internalType": "uint256",
          "name": "",
          "type": "uint256"
        }
      ],
      "name": "s_participants",
      "outputs": [
        {
          "internalType": "address",
          "name": "",
          "type": "address"
        }
      ],
      "stateMutability": "view",
      "type": "function"
    },
    {
      "inputs": [],
      "name": "s_recentWinner",
      "outputs": [
        {
          "internalType": "address payable",
          "name": "",
          "type": "address"
        }
      ],
      "stateMutability": "view",
      "type": "function"
    },
    {
      "inputs": [],
      "name": "s_requestId",
      "outputs": [
        {
          "internalType": "uint256",
          "name": "",
          "type": "uint256"
        }
      ],
      "stateMutability": "view",
      "type": "function"
    },
    {
      "inputs": [
        {
          "internalType": "int8",
          "name": "_entranceFeeInUsd",
          "type": "int8"
        }
      ],
      "name": "setEntranceFee",
      "outputs": [],
      "stateMutability": "nonpayable",
      "type": "function"
    },
    {
      "inputs": [
        {
          "internalType": "uint32",
          "name": "_durationInSecs",
          "type": "uint32"
        }
      ],
      "name": "setLotteryDuration",
      "outputs": [],
      "stateMutability": "nonpayable",
      "type": "function"
    },
    {
      "inputs": [
        {
          "internalType": "uint256",
          "name": "_newLimit",
          "type": "uint256"
        }
      ],
      "name": "setMinParticipantsLimit",
      "outputs": [],
      "stateMutability": "nonpayable",
      "type": "function"
    },
    {
      "inputs": [],
      "name": "startLottery",
      "outputs": [],
      "stateMutability": "nonpayable",
      "type": "function"
    },
    {
      "inputs": [
        {
          "internalType": "address",
          "name": "newOwner",
          "type": "address"
        }
      ],
      "name": "transferOwnership",
      "outputs": [],
      "stateMutability": "nonpayable",
      "type": "function"
    }
  ],
  "transactionHash": "0xd3635ad095104ab39f96be142edfd19aa6e1300cddc23a90002c910533b3c0fc",
  "args": [
    3,
    "0x0715A7794a1dc8e42615F059dD6e406A6594651A",
    "0x7a1BaC17Ccc5b313516C5E16fb24f7659aA5ebed",
    50,
    "2223"
  ],
  "numDeployments": 3,
  "solcInputHash": "8a951825f53b540c8e7ce57fd0c077cb",
  "bytecode": "0x60c06040526008805463ffffffff1916620151801790553480156200002357600080fd5b50604051620013a0380380620013a0833981016040819052620000469162000152565b6001600160a01b0383166080526200005e33620000e5565b6000805460ff60a01b1916600160a01b60ff949094169390930292909217909155600980546001600160a01b0319166001600160a01b03948516179055600880546c010000000000000000000000006001600160401b0390931664010000000002600160201b600160681b0319909116179190911790556006929092551660a052620001d0565b600080546001600160a01b038381166001600160a01b0319831681178455604051919092169283917f8be0079c531659141344cd1fd0a4f28419497f9722a3daafe3b4186f6b6457e09190a35050565b80516001600160a01b03811681146200014d57600080fd5b919050565b600080600080600060a086880312156200016b57600080fd5b855194506200017d6020870162000135565b93506200018d6040870162000135565b925060608601518060000b8114620001a457600080fd5b60808701519092506001600160401b0381168114620001c257600080fd5b809150509295509295909350565b60805160a0516111a3620001fd600039600061060a01526000818161070f015261075101526111a36000f3fe6080604052600436106101355760003560e01c80638638b0c6116100ab578063be3fbee51161006f578063be3fbee514610363578063d4c8c37314610379578063e59769d7146103a7578063e89e106a146103dc578063e97dcb62146103f2578063f2fde38b146103fa57600080fd5b80638638b0c6146102ad57806387bc8088146102e55780638da5cb5b146103055780638df5a6a414610323578063a732edba1461034357600080fd5b806320dff34e116100fd57806320dff34e146101c457806328498d92146102045780634399076e146102315780635d91bb8214610251578063639a732e14610266578063715018a61461029857600080fd5b806309bc33a71461013a5780630c216d6e146101625780631593a8c714610178578063160344e21461018f5780631fe543e3146101a4575b600080fd5b34801561014657600080fd5b5061014f61041a565b6040519081526020015b60405180910390f35b34801561016e57600080fd5b5061014f60075481565b34801561018457600080fd5b5061018d6104ee565b005b34801561019b57600080fd5b5061018d61068b565b3480156101b057600080fd5b5061018d6101bf366004610e04565b610704565b3480156101d057600080fd5b506101f46101df366004610ece565b60026020526000908152604090205460ff1681565b6040519015158152602001610159565b34801561021057600080fd5b5061014f61021f366004610ece565b60016020526000908152604090205481565b34801561023d57600080fd5b5061018d61024c366004610efe565b61078c565b34801561025d57600080fd5b5060035461014f565b34801561027257600080fd5b506008546102839063ffffffff1681565b60405163ffffffff9091168152602001610159565b3480156102a457600080fd5b5061018d6107bb565b3480156102b957600080fd5b506004546102cd906001600160a01b031681565b6040516001600160a01b039091168152602001610159565b3480156102f157600080fd5b5061018d610300366004610f17565b6107f1565b34801561031157600080fd5b506000546001600160a01b03166102cd565b34801561032f57600080fd5b506102cd61033e366004610efe565b61083b565b34801561034f57600080fd5b5061018d61035e366004610f3a565b610865565b34801561036f57600080fd5b5061014f60065481565b34801561038557600080fd5b5060085461039a90600160601b900460ff1681565b6040516101599190610f76565b3480156103b357600080fd5b50600080546103c991600160a01b909104900b81565b60405160009190910b8152602001610159565b3480156103e857600080fd5b5061014f60055481565b61018d6108ab565b34801561040657600080fd5b5061018d610415366004610ece565b6109ce565b600080600960009054906101000a90046001600160a01b03166001600160a01b031663feaf968c6040518163ffffffff1660e01b815260040160a06040518083038186803b15801561046b57600080fd5b505afa15801561047f573d6000803e3d6000fd5b505050506040513d601f19601f820116820180604052508101906104a39190610fbd565b505060008054929450600160a01b90920460ff1692508390506104ca836305f5e100611023565b6104dc90670de0b6b3a7640000611023565b6104e69190611058565b949350505050565b6000546001600160a01b031633146105215760405162461bcd60e51b81526004016105189061106c565b60405180910390fd5b6000600854600160601b900460ff16600281111561054157610541610f60565b1461055f5760405163823ea8bb60e01b815260040160405180910390fd5b600654600354101561058457604051631f54a6e160e21b815260040160405180910390fd5b60088054600160611b60ff60601b1990911617908190556040516305d3b1d360e41b81527f4b09e658ed251bcafeebbc69400383d49f344ace09b9576fe248bb02c003fe9f600482015267ffffffffffffffff64010000000090920491909116602482015260036044820152620186a06064820152600160848201526001600160a01b037f00000000000000000000000000000000000000000000000000000000000000001690635d3b1d309060a401602060405180830381600087803b15801561064e57600080fd5b505af1158015610662573d6000803e3d6000fd5b505050506040513d601f19601f8201168201806040525081019061068691906110a1565b600555565b6000546001600160a01b031633146106b55760405162461bcd60e51b81526004016105189061106c565b6001600854600160601b900460ff1660028111156106d5576106d5610f60565b146106df57600080fd5b6008546106f29063ffffffff16426110ba565b6007556008805460ff60601b19169055565b336001600160a01b037f0000000000000000000000000000000000000000000000000000000000000000161461077e5760405163073e64fd60e21b81523360048201526001600160a01b037f0000000000000000000000000000000000000000000000000000000000000000166024820152604401610518565b6107888282610a69565b5050565b6000546001600160a01b031633146107b65760405162461bcd60e51b81526004016105189061106c565b600655565b6000546001600160a01b031633146107e55760405162461bcd60e51b81526004016105189061106c565b6107ef6000610d24565b565b6000546001600160a01b0316331461081b5760405162461bcd60e51b81526004016105189061106c565b6000805460ff909216600160a01b0260ff60a01b19909216919091179055565b6003818154811061084b57600080fd5b6000918252602090912001546001600160a01b0316905081565b6000546001600160a01b0316331461088f5760405162461bcd60e51b81526004016105189061106c565b6008805463ffffffff191663ffffffff92909216919091179055565b6000600854600160601b900460ff1660028111156108cb576108cb610f60565b146108e95760405163823ea8bb60e01b815260040160405180910390fd5b6108f161041a565b34101561091157604051632901e30960e21b815260040160405180910390fd5b3360009081526002602052604090205460ff1661096b57600380546001810182556000919091527fc2575a0e9e593c00f959f8c92f12db2869c3395a3b0502d05e2516446f71f85b0180546001600160a01b031916331790555b33600081815260016020818152604080842034908190556002835293819020805460ff191690931790925581519384528301919091527ff95d19afcfb10921fb16ee6d59fa06900c0b95dd3ef561635442287c95f1f91d910160405180910390a1565b6000546001600160a01b031633146109f85760405162461bcd60e51b81526004016105189061106c565b6001600160a01b038116610a5d5760405162461bcd60e51b815260206004820152602660248201527f4f776e61626c653a206e6577206f776e657220697320746865207a65726f206160448201526564647265737360d01b6064820152608401610518565b610a6681610d24565b50565b6002600854600160601b900460ff166002811115610a8957610a89610f60565b14610a9357600080fd5b600081600081518110610aa857610aa86110d2565b602002602001015111610aba57600080fd5b6000815111610ac857600080fd5b600060038054905082600081518110610ae357610ae36110d2565b6020026020010151610af591906110e8565b6003549091508110610b0657600080fd5b60038181548110610b1957610b196110d2565b6000918252602082200154600480546001600160a01b0319166001600160a01b039283161790558154166001600160a01b03166064610b59476014611023565b610b639190611058565b604051600081818185875af1925050503d8060008114610b9f576040519150601f19603f3d011682016040523d82523d6000602084013e610ba4565b606091505b5050905080610bc55760405162e4a00960e51b815260040160405180910390fd5b6004546040516000916001600160a01b03169047908381818185875af1925050503d8060008114610c12576040519150601f19603f3d011682016040523d82523d6000602084013e610c17565b606091505b5050905080610c385760405162e4a00960e51b815260040160405180910390fd5b60005b600354811015610ca45760006002600060038481548110610c5e57610c5e6110d2565b6000918252602080832091909101546001600160a01b031683528201929092526040019020805460ff191691151591909117905580610c9c816110fc565b915050610c3b565b506040805160008152602081019182905251610cc291600391610d74565b506008805460ff60601b1916600160601b1790556004546040517f3cd1e164378087c10fd92c32274b2ab5a3536fe9fc7f3093db21479a5639a1f291610d15916001600160a01b03909116908790611117565b60405180910390a15050505050565b600080546001600160a01b038381166001600160a01b0319831681178455604051919092169283917f8be0079c531659141344cd1fd0a4f28419497f9722a3daafe3b4186f6b6457e09190a35050565b828054828255906000526020600020908101928215610dc9579160200282015b82811115610dc957825182546001600160a01b0319166001600160a01b03909116178255602090920191600190910190610d94565b50610dd5929150610dd9565b5090565b5b80821115610dd55760008155600101610dda565b634e487b7160e01b600052604160045260246000fd5b60008060408385031215610e1757600080fd5b8235915060208084013567ffffffffffffffff80821115610e3757600080fd5b818601915086601f830112610e4b57600080fd5b813581811115610e5d57610e5d610dee565b8060051b604051601f19603f83011681018181108582111715610e8257610e82610dee565b604052918252848201925083810185019189831115610ea057600080fd5b938501935b82851015610ebe57843584529385019392850192610ea5565b8096505050505050509250929050565b600060208284031215610ee057600080fd5b81356001600160a01b0381168114610ef757600080fd5b9392505050565b600060208284031215610f1057600080fd5b5035919050565b600060208284031215610f2957600080fd5b81358060000b8114610ef757600080fd5b600060208284031215610f4c57600080fd5b813563ffffffff81168114610ef757600080fd5b634e487b7160e01b600052602160045260246000fd5b6020810160038310610f9857634e487b7160e01b600052602160045260246000fd5b91905290565b805169ffffffffffffffffffff81168114610fb857600080fd5b919050565b600080600080600060a08688031215610fd557600080fd5b610fde86610f9e565b945060208601519350604086015192506060860151915061100160808701610f9e565b90509295509295909350565b634e487b7160e01b600052601160045260246000fd5b600081600019048311821515161561103d5761103d61100d565b500290565b634e487b7160e01b600052601260045260246000fd5b60008261106757611067611042565b500490565b6020808252818101527f4f776e61626c653a2063616c6c6572206973206e6f7420746865206f776e6572604082015260600190565b6000602082840312156110b357600080fd5b5051919050565b600082198211156110cd576110cd61100d565b500190565b634e487b7160e01b600052603260045260246000fd5b6000826110f7576110f7611042565b500690565b60006000198214156111105761111061100d565b5060010190565b6001600160a01b038316815260406020808301829052835191830182905260009184820191906060850190845b8181101561116057845183529383019391830191600101611144565b509097965050505050505056fea2646970667358221220cce1a551effe2ffd339569fabdf5caef2139825204bc23b96f56c636aedbfb8264736f6c63430008090033",
  "devdoc": {
    "kind": "dev",
    "methods": {
      "owner()": {
        "details": "Returns the address of the current owner."
      },
      "renounceOwnership()": {
        "details": "Leaves the contract without owner. It will not be possible to call `onlyOwner` functions anymore. Can only be called by the current owner. NOTE: Renouncing ownership will leave the contract without an owner, thereby removing any functionality that is only available to the owner."
      },
      "transferOwnership(address)": {
        "details": "Transfers ownership of the contract to a new account (`newOwner`). Can only be called by the current owner."
      }
    },
    "version": 1
  },
  "userdoc": {
    "kind": "user",
    "methods": {},
    "version": 1
  },
  "storageLayout": {
    "storage": [
      {
        "astId": 874,
        "contract": "contracts/Lottery.sol:Lottery",
        "label": "_owner",
        "offset": 0,
        "slot": "0",
        "type": "t_address"
      },
      {
        "astId": 1018,
        "contract": "contracts/Lottery.sol:Lottery",
        "label": "s_entranceFeeInUsd",
        "offset": 20,
        "slot": "0",
        "type": "t_int8"
      },
      {
        "astId": 1025,
        "contract": "contracts/Lottery.sol:Lottery",
        "label": "s_addressToAmountDeposited",
        "offset": 0,
        "slot": "1",
        "type": "t_mapping(t_address,t_uint256)"
      },
      {
        "astId": 1029,
        "contract": "contracts/Lottery.sol:Lottery",
        "label": "s_isParticipant",
        "offset": 0,
        "slot": "2",
        "type": "t_mapping(t_address,t_bool)"
      },
      {
        "astId": 1032,
        "contract": "contracts/Lottery.sol:Lottery",
        "label": "s_participants",
        "offset": 0,
        "slot": "3",
        "type": "t_array(t_address)dyn_storage"
      },
      {
        "astId": 1034,
        "contract": "contracts/Lottery.sol:Lottery",
        "label": "s_recentWinner",
        "offset": 0,
        "slot": "4",
        "type": "t_address_payable"
      },
      {
        "astId": 1036,
        "contract": "contracts/Lottery.sol:Lottery",
        "label": "s_requestId",
        "offset": 0,
        "slot": "5",
        "type": "t_uint256"
      },
      {
        "astId": 1038,
        "contract": "contracts/Lottery.sol:Lottery",
        "label": "s_minParticpantsLimit",
        "offset": 0,
        "slot": "6",
        "type": "t_uint256"
      },
      {
        "astId": 1040,
        "contract": "contracts/Lottery.sol:Lottery",
        "label": "s_lotteryEndTimestamp",
        "offset": 0,
        "slot": "7",
        "type": "t_uint256"
      },
      {
        "astId": 1043,
        "contract": "contracts/Lottery.sol:Lottery",
        "label": "s_lotteryDuration",
        "offset": 0,
        "slot": "8",
        "type": "t_uint32"
      },
      {
        "astId": 1045,
        "contract": "contracts/Lottery.sol:Lottery",
        "label": "s_subscriptionId",
        "offset": 4,
        "slot": "8",
        "type": "t_uint64"
      },
      {
        "astId": 1048,
        "contract": "contracts/Lottery.sol:Lottery",
        "label": "s_lotteryState",
        "offset": 12,
        "slot": "8",
        "type": "t_enum(LotteryState)1016"
      },
      {
        "astId": 1051,
        "contract": "contracts/Lottery.sol:Lottery",
        "label": "s_priceFeed",
        "offset": 0,
        "slot": "9",
        "type": "t_contract(AggregatorV3Interface)103"
      }
    ],
    "types": {
      "t_address": {
        "encoding": "inplace",
        "label": "address",
        "numberOfBytes": "20"
      },
      "t_address_payable": {
        "encoding": "inplace",
        "label": "address payable",
        "numberOfBytes": "20"
      },
      "t_array(t_address)dyn_storage": {
        "base": "t_address",
        "encoding": "dynamic_array",
        "label": "address[]",
        "numberOfBytes": "32"
      },
      "t_bool": {
        "encoding": "inplace",
        "label": "bool",
        "numberOfBytes": "1"
      },
      "t_contract(AggregatorV3Interface)103": {
        "encoding": "inplace",
        "label": "contract AggregatorV3Interface",
        "numberOfBytes": "20"
      },
      "t_enum(LotteryState)1016": {
        "encoding": "inplace",
        "label": "enum Lottery.LotteryState",
        "numberOfBytes": "1"
      },
      "t_int8": {
        "encoding": "inplace",
        "label": "int8",
        "numberOfBytes": "1"
      },
      "t_mapping(t_address,t_bool)": {
        "encoding": "mapping",
        "key": "t_address",
        "label": "mapping(address => bool)",
        "numberOfBytes": "32",
        "value": "t_bool"
      },
      "t_mapping(t_address,t_uint256)": {
        "encoding": "mapping",
        "key": "t_address",
        "label": "mapping(address => uint256)",
        "numberOfBytes": "32",
        "value": "t_uint256"
      },
      "t_uint256": {
        "encoding": "inplace",
        "label": "uint256",
        "numberOfBytes": "32"
      },
      "t_uint32": {
        "encoding": "inplace",
        "label": "uint32",
        "numberOfBytes": "4"
      },
      "t_uint64": {
        "encoding": "inplace",
        "label": "uint64",
        "numberOfBytes": "8"
      }
    }
  }
}