{
  "address": "0x47E3C9ef45073ef86A5a375453782Ac6bA4F7eA0",
  "abi": [
    {
      "inputs": [
        {
          "internalType": "uint256",
          "name": "_minParticpantsLimit",
          "type": "uint256"
        },
        {
          "internalType": "address",
          "name": "_priceFeed",
          "type": "address"
        },
        {
          "internalType": "address",
          "name": "_vrfCoordinator",
          "type": "address"
        },
        {
          "internalType": "int256",
          "name": "_entranceFeeInUsdinFixedPoint",
          "type": "int256"
        },
        {
          "internalType": "uint64",
          "name": "_subscriptionId",
          "type": "uint64"
        }
      ],
      "stateMutability": "nonpayable",
      "type": "constructor"
    },
    {
      "inputs": [],
      "name": "Lottery__LotteryNotOpen",
      "type": "error"
    },
    {
      "inputs": [],
      "name": "Lottery__ParticipantCountIsLow",
      "type": "error"
    },
    {
      "inputs": [],
      "name": "Lottery__SendMoreToEnterLottery",
      "type": "error"
    },
    {
      "inputs": [],
      "name": "Lottery__TransferFailed",
      "type": "error"
    },
    {
      "inputs": [
        {
          "internalType": "address",
          "name": "have",
          "type": "address"
        },
        {
          "internalType": "address",
          "name": "want",
          "type": "address"
        }
      ],
      "name": "OnlyCoordinatorCanFulfill",
      "type": "error"
    },
    {
      "anonymous": false,
      "inputs": [
        {
          "indexed": true,
          "internalType": "address",
          "name": "previousOwner",
          "type": "address"
        },
        {
          "indexed": true,
          "internalType": "address",
          "name": "newOwner",
          "type": "address"
        }
      ],
      "name": "OwnershipTransferred",
      "type": "event"
    },
    {
      "anonymous": false,
      "inputs": [
        {
          "indexed": false,
          "internalType": "address",
          "name": "_participant",
          "type": "address"
        },
        {
          "indexed": false,
          "internalType": "uint256",
          "name": "_amountDeposited",
          "type": "uint256"
        }
      ],
      "name": "PlayerEnteredLottery",
      "type": "event"
    },
    {
      "anonymous": false,
      "inputs": [
        {
          "indexed": false,
          "internalType": "address",
          "name": "_recentWinner",
          "type": "address"
        },
        {
          "indexed": false,
          "internalType": "uint256[]",
          "name": "_randomWords",
          "type": "uint256[]"
        }
      ],
      "name": "WinnerGotMoney",
      "type": "event"
    },
    {
      "inputs": [],
      "name": "disperseFunds",
      "outputs": [],
      "stateMutability": "nonpayable",
      "type": "function"
    },
    {
      "inputs": [],
      "name": "endLottery",
      "outputs": [],
      "stateMutability": "nonpayable",
      "type": "function"
    },
    {
      "inputs": [],
      "name": "enter",
      "outputs": [],
      "stateMutability": "payable",
      "type": "function"
    },
    {
      "inputs": [],
      "name": "getEntranceFee",
      "outputs": [
        {
          "internalType": "uint256",
          "name": "",
          "type": "uint256"
        }
      ],
      "stateMutability": "view",
      "type": "function"
    },
    {
      "inputs": [],
      "name": "getLatestRoundData",
      "outputs": [
        {
          "internalType": "uint80",
          "name": "roundId",
          "type": "uint80"
        },
        {
          "internalType": "int256",
          "name": "answer",
          "type": "int256"
        },
        {
          "internalType": "uint256",
          "name": "startedAt",
          "type": "uint256"
        },
        {
          "internalType": "uint256",
          "name": "updatedAt",
          "type": "uint256"
        },
        {
          "internalType": "uint80",
          "name": "answeredInRound",
          "type": "uint80"
        }
      ],
      "stateMutability": "view",
      "type": "function"
    },
    {
      "inputs": [],
      "name": "getParticipantsLen",
      "outputs": [
        {
          "internalType": "uint256",
          "name": "",
          "type": "uint256"
        }
      ],
      "stateMutability": "view",
      "type": "function"
    },
    {
      "inputs": [],
      "name": "getPriceFeedName",
      "outputs": [
        {
          "internalType": "string",
          "name": "",
          "type": "string"
        }
      ],
      "stateMutability": "view",
      "type": "function"
    },
    {
      "inputs": [],
      "name": "i_vrfCoordinator",
      "outputs": [
        {
          "internalType": "contract VRFCoordinatorV2Interface",
          "name": "",
          "type": "address"
        }
      ],
      "stateMutability": "view",
      "type": "function"
    },
    {
      "inputs": [],
      "name": "owner",
      "outputs": [
        {
          "internalType": "address",
          "name": "",
          "type": "address"
        }
      ],
      "stateMutability": "view",
      "type": "function"
    },
    {
      "inputs": [
        {
          "internalType": "uint256",
          "name": "requestId",
          "type": "uint256"
        },
        {
          "internalType": "uint256[]",
          "name": "randomWords",
          "type": "uint256[]"
        }
      ],
      "name": "rawFulfillRandomWords",
      "outputs": [],
      "stateMutability": "nonpayable",
      "type": "function"
    },
    {
      "inputs": [],
      "name": "renounceOwnership",
      "outputs": [],
      "stateMutability": "nonpayable",
      "type": "function"
    },
    {
      "inputs": [
        {
          "internalType": "address",
          "name": "",
          "type": "address"
        }
      ],
      "name": "s_addressToAmountDeposited",
      "outputs": [
        {
          "internalType": "uint256",
          "name": "",
          "type": "uint256"
        }
      ],
      "stateMutability": "view",
      "type": "function"
    },
    {
      "inputs": [],
      "name": "s_entranceFeeInUsd",
      "outputs": [
        {
          "internalType": "int256",
          "name": "",
          "type": "int256"
        }
      ],
      "stateMutability": "view",
      "type": "function"
    },
    {
      "inputs": [
        {
          "internalType": "address",
          "name": "",
          "type": "address"
        }
      ],
      "name": "s_isParticipant",
      "outputs": [
        {
          "internalType": "bool",
          "name": "",
          "type": "bool"
        }
      ],
      "stateMutability": "view",
      "type": "function"
    },
    {
      "inputs": [],
      "name": "s_lotteryDuration",
      "outputs": [
        {
          "internalType": "uint32",
          "name": "",
          "type": "uint32"
        }
      ],
      "stateMutability": "view",
      "type": "function"
    },
    {
      "inputs": [],
      "name": "s_lotteryEndTimestamp",
      "outputs": [
        {
          "internalType": "uint256",
          "name": "",
          "type": "uint256"
        }
      ],
      "stateMutability": "view",
      "type": "function"
    },
    {
      "inputs": [],
      "name": "s_lotteryState",
      "outputs": [
        {
          "internalType": "enum Lottery.LotteryState",
          "name": "",
          "type": "uint8"
        }
      ],
      "stateMutability": "view",
      "type": "function"
    },
    {
      "inputs": [],
      "name": "s_minParticpantsLimit",
      "outputs": [
        {
          "internalType": "uint256",
          "name": "",
          "type": "uint256"
        }
      ],
      "stateMutability": "view",
      "type": "function"
    },
    {
      "inputs": [
        {
          "internalType": "uint256",
          "name": "",
          "type": "uint256"
        }
      ],
      "name": "s_participants",
      "outputs": [
        {
          "internalType": "address",
          "name": "",
          "type": "address"
        }
      ],
      "stateMutability": "view",
      "type": "function"
    },
    {
      "inputs": [],
      "name": "s_priceFeed",
      "outputs": [
        {
          "internalType": "contract AggregatorV3Interface",
          "name": "",
          "type": "address"
        }
      ],
      "stateMutability": "view",
      "type": "function"
    },
    {
      "inputs": [],
      "name": "s_recentWinner",
      "outputs": [
        {
          "internalType": "address payable",
          "name": "",
          "type": "address"
        }
      ],
      "stateMutability": "view",
      "type": "function"
    },
    {
      "inputs": [],
      "name": "s_requestId",
      "outputs": [
        {
          "internalType": "uint256",
          "name": "",
          "type": "uint256"
        }
      ],
      "stateMutability": "view",
      "type": "function"
    },
    {
      "inputs": [],
      "name": "s_subscriptionId",
      "outputs": [
        {
          "internalType": "uint64",
          "name": "",
          "type": "uint64"
        }
      ],
      "stateMutability": "view",
      "type": "function"
    },
    {
      "inputs": [
        {
          "internalType": "uint32",
          "name": "_callbackGasLimit",
          "type": "uint32"
        }
      ],
      "name": "setCallbakGasLimit",
      "outputs": [],
      "stateMutability": "nonpayable",
      "type": "function"
    },
    {
      "inputs": [
        {
          "internalType": "int256",
          "name": "_entranceFeeInUsdinFixedPoint",
          "type": "int256"
        }
      ],
      "name": "setEntranceFee",
      "outputs": [],
      "stateMutability": "nonpayable",
      "type": "function"
    },
    {
      "inputs": [
        {
          "internalType": "bytes32",
          "name": "_keyHash",
          "type": "bytes32"
        }
      ],
      "name": "setKeyHash",
      "outputs": [],
      "stateMutability": "nonpayable",
      "type": "function"
    },
    {
      "inputs": [
        {
          "internalType": "uint32",
          "name": "_durationInSecs",
          "type": "uint32"
        }
      ],
      "name": "setLotteryDuration",
      "outputs": [],
      "stateMutability": "nonpayable",
      "type": "function"
    },
    {
      "inputs": [
        {
          "internalType": "uint256",
          "name": "_newLimit",
          "type": "uint256"
        }
      ],
      "name": "setMinParticipantsLimit",
      "outputs": [],
      "stateMutability": "nonpayable",
      "type": "function"
    },
    {
      "inputs": [
        {
          "internalType": "uint16",
          "name": "_requestConfirmations",
          "type": "uint16"
        }
      ],
      "name": "setRequestConfirmations",
      "outputs": [],
      "stateMutability": "nonpayable",
      "type": "function"
    },
    {
      "inputs": [
        {
          "internalType": "uint64",
          "name": "_subscriptionId",
          "type": "uint64"
        }
      ],
      "name": "setSubscriptionId",
      "outputs": [],
      "stateMutability": "nonpayable",
      "type": "function"
    },
    {
      "inputs": [],
      "name": "startLottery",
      "outputs": [],
      "stateMutability": "nonpayable",
      "type": "function"
    },
    {
      "inputs": [
        {
          "internalType": "address",
          "name": "newOwner",
          "type": "address"
        }
      ],
      "name": "transferOwnership",
      "outputs": [],
      "stateMutability": "nonpayable",
      "type": "function"
    }
  ],
  "transactionHash": "0xae8f404e7064b6462e660218faa8331de958f42ebc7ba46994385a8cc4cfeca1",
  "args": [
    3,
    "0xd0D5e3DB44DE05E9F294BB0a3bEEaF030DE24Ada",
    "0x7a1BaC17Ccc5b313516C5E16fb24f7659aA5ebed",
    1000000,
    "2223"
  ],
  "numDeployments": 7,
  "solcInputHash": "098917d26332e877936fe69383032cba",
  "bytecode": "0x60c06040526009805463ffffffff1916620151801790557f4b09e658ed251bcafeebbc69400383d49f344ace09b9576fe248bb02c003fe9f600b55600c80546403000186a065ffffffffffff199091161790553480156200005f57600080fd5b5060405162001a0338038062001a03833981016040819052620000829162000173565b6001600160a01b0383166080526200009a3362000106565b600191909155600a80546001600160a01b0319166001600160a01b03948516179055600980546c010000000000000000000000006001600160401b0390931664010000000002600160201b600160681b0319909116179190911790556007929092551660a052620001e1565b600080546001600160a01b038381166001600160a01b0319831681178455604051919092169283917f8be0079c531659141344cd1fd0a4f28419497f9722a3daafe3b4186f6b6457e09190a35050565b80516001600160a01b03811681146200016e57600080fd5b919050565b600080600080600060a086880312156200018c57600080fd5b855194506200019e6020870162000156565b9350620001ae6040870162000156565b6060870151608088015191945092506001600160401b0381168114620001d357600080fd5b809150509295509295909350565b60805160a0516117ee620002156000396000818161052601526107c80152600081816108d5015261091701526117ee6000f3fe6080604052600436106101e35760003560e01c80638824f5a711610102578063be3fbee511610095578063e97dcb6211610064578063e97dcb62146105da578063ea7b4f77146105e2578063f2fde38b14610602578063fdc1a5f01461062257600080fd5b8063be3fbee51461056a578063d4c8c37314610580578063e59769d7146105ae578063e89e106a146105c457600080fd5b806398544710116100d157806398544710146104d4578063a732edba146104f4578063aebc455014610514578063aff6d8441461054857600080fd5b80638824f5a7146104345780638ac00021146104545780638da5cb5b146104965780638df5a6a4146104b457600080fd5b80632daae2f31161017a578063639a732e11610149578063639a732e146103ad578063715018a6146103df57806379c73bdb146103f45780638638b0c61461041457600080fd5b80632daae2f3146103175780634399076e146103635780635130ac1f146103835780635d91bb821461039857600080fd5b8063160344e2116101b6578063160344e2146102755780631fe543e31461028a57806320dff34e146102aa57806328498d92146102ea57600080fd5b806309bc33a7146101e85780630c216d6e146102105780630ec3b027146102265780631593a8c71461025e575b600080fd5b3480156101f457600080fd5b506101fd610642565b6040519081526020015b60405180910390f35b34801561021c57600080fd5b506101fd60085481565b34801561023257600080fd5b50600a54610246906001600160a01b031681565b6040516001600160a01b039091168152602001610207565b34801561026a57600080fd5b506102736106ff565b005b34801561028157600080fd5b50610273610851565b34801561029657600080fd5b506102736102a5366004611345565b6108ca565b3480156102b657600080fd5b506102da6102c53660046113f7565b60036020526000908152604090205460ff1681565b6040519015158152602001610207565b3480156102f657600080fd5b506101fd6103053660046113f7565b60026020526000908152604090205481565b34801561032357600080fd5b5061032c610952565b6040805169ffffffffffffffffffff968716815260208101959095528401929092526060830152909116608082015260a001610207565b34801561036f57600080fd5b5061027361037e366004611427565b6109f1565b34801561038f57600080fd5b50610273610a20565b3480156103a457600080fd5b506004546101fd565b3480156103b957600080fd5b506009546103ca9063ffffffff1681565b60405163ffffffff9091168152602001610207565b3480156103eb57600080fd5b50610273610b43565b34801561040057600080fd5b5061027361040f366004611427565b610b79565b34801561042057600080fd5b50600554610246906001600160a01b031681565b34801561044057600080fd5b5061027361044f366004611440565b610ba8565b34801561046057600080fd5b5060095461047d90640100000000900467ffffffffffffffff1681565b60405167ffffffffffffffff9091168152602001610207565b3480156104a257600080fd5b506000546001600160a01b0316610246565b3480156104c057600080fd5b506102466104cf366004611427565b610bf6565b3480156104e057600080fd5b506102736104ef366004611427565b610c20565b34801561050057600080fd5b5061027361050f366004611464565b610c4f565b34801561052057600080fd5b506102467f000000000000000000000000000000000000000000000000000000000000000081565b34801561055457600080fd5b5061055d610c95565b60405161020791906114ba565b34801561057657600080fd5b506101fd60075481565b34801561058c57600080fd5b506009546105a190600160601b900460ff1681565b6040516102079190611503565b3480156105ba57600080fd5b506101fd60015481565b3480156105d057600080fd5b506101fd60065481565b610273610d1b565b3480156105ee57600080fd5b506102736105fd36600461152b565b610e3e565b34801561060e57600080fd5b5061027361061d3660046113f7565b610e98565b34801561062e57600080fd5b5061027361063d366004611464565b610f33565b600080600a60009054906101000a90046001600160a01b03166001600160a01b031663feaf968c6040518163ffffffff1660e01b815260040160a06040518083038186803b15801561069357600080fd5b505afa1580156106a7573d6000803e3d6000fd5b505050506040513d601f19601f820116820180604052508101906106cb9190611574565b505060015491935090915060009050826106ed83670de0b6b3a76400006115da565b6106f7919061160f565b949350505050565b6000546001600160a01b031633146107325760405162461bcd60e51b815260040161072990611623565b60405180910390fd5b600754600454101561075757604051631f54a6e160e21b815260040160405180910390fd5b600980546002919060ff60601b1916600160601b830217905550600b54600954600c546040516305d3b1d360e41b815260048101939093526401000000009182900467ffffffffffffffff16602484015290810461ffff16604483015263ffffffff166064820152600160848201527f00000000000000000000000000000000000000000000000000000000000000006001600160a01b031690635d3b1d309060a401602060405180830381600087803b15801561081457600080fd5b505af1158015610828573d6000803e3d6000fd5b505050506040513d601f19601f8201168201806040525081019061084c9190611658565b600655565b6000546001600160a01b0316331461087b5760405162461bcd60e51b815260040161072990611623565b6001600954600160601b900460ff16600281111561089b5761089b6114ed565b146108a557600080fd5b6009546108b89063ffffffff1642611671565b6008556009805460ff60601b19169055565b336001600160a01b037f000000000000000000000000000000000000000000000000000000000000000016146109445760405163073e64fd60e21b81523360048201526001600160a01b037f0000000000000000000000000000000000000000000000000000000000000000166024820152604401610729565b61094e8282610f79565b5050565b6000806000806000600a60009054906101000a90046001600160a01b03166001600160a01b031663feaf968c6040518163ffffffff1660e01b815260040160a06040518083038186803b1580156109a857600080fd5b505afa1580156109bc573d6000803e3d6000fd5b505050506040513d601f19601f820116820180604052508101906109e09190611574565b945094509450945094509091929394565b6000546001600160a01b03163314610a1b5760405162461bcd60e51b815260040161072990611623565b600755565b6000546001600160a01b03163314610a4a5760405162461bcd60e51b815260040161072990611623565b600080546001600160a01b03166064610a644760146115da565b610a6e919061160f565b604051600081818185875af1925050503d8060008114610aaa576040519150601f19603f3d011682016040523d82523d6000602084013e610aaf565b606091505b5050905080610ad05760405162e4a00960e51b815260040160405180910390fd5b6005546040516000916001600160a01b03169047908381818185875af1925050503d8060008114610b1d576040519150601f19603f3d011682016040523d82523d6000602084013e610b22565b606091505b505090508061094e5760405162e4a00960e51b815260040160405180910390fd5b6000546001600160a01b03163314610b6d5760405162461bcd60e51b815260040161072990611623565b610b776000611234565b565b6000546001600160a01b03163314610ba35760405162461bcd60e51b815260040161072990611623565b600155565b6000546001600160a01b03163314610bd25760405162461bcd60e51b815260040161072990611623565b600c805461ffff9092166401000000000265ffff0000000019909216919091179055565b60048181548110610c0657600080fd5b6000918252602090912001546001600160a01b0316905081565b6000546001600160a01b03163314610c4a5760405162461bcd60e51b815260040161072990611623565b600b55565b6000546001600160a01b03163314610c795760405162461bcd60e51b815260040161072990611623565b6009805463ffffffff191663ffffffff92909216919091179055565b600a5460408051633942720b60e11b815290516060926001600160a01b031691637284e416916004808301926000929190829003018186803b158015610cda57600080fd5b505afa158015610cee573d6000803e3d6000fd5b505050506040513d6000823e601f3d908101601f19168201604052610d169190810190611689565b905090565b6000600954600160601b900460ff166002811115610d3b57610d3b6114ed565b14610d595760405163823ea8bb60e01b815260040160405180910390fd5b610d61610642565b341015610d8157604051632901e30960e21b815260040160405180910390fd5b3360009081526003602052604090205460ff16610ddb57600480546001810182556000919091527f8a35acfbc15ff81a39ae7d344fd709f28e8600b4aa8c65c6b64bfe7fe36bd19b0180546001600160a01b031916331790555b33600081815260026020908152604080832034908190556003835292819020805460ff191660011790558051938452908301919091527ff95d19afcfb10921fb16ee6d59fa06900c0b95dd3ef561635442287c95f1f91d910160405180910390a1565b6000546001600160a01b03163314610e685760405162461bcd60e51b815260040161072990611623565b6009805467ffffffffffffffff909216640100000000026bffffffffffffffff0000000019909216919091179055565b6000546001600160a01b03163314610ec25760405162461bcd60e51b815260040161072990611623565b6001600160a01b038116610f275760405162461bcd60e51b815260206004820152602660248201527f4f776e61626c653a206e6577206f776e657220697320746865207a65726f206160448201526564647265737360d01b6064820152608401610729565b610f3081611234565b50565b6000546001600160a01b03163314610f5d5760405162461bcd60e51b815260040161072990611623565b600c805463ffffffff191663ffffffff92909216919091179055565b6002600954600160601b900460ff166002811115610f9957610f996114ed565b14610fa357600080fd5b600081600081518110610fb857610fb861171d565b602002602001015111610fca57600080fd5b6000815111610fd857600080fd5b600060048054905082600081518110610ff357610ff361171d565b60200260200101516110059190611733565b600454909150811061101657600080fd5b600481815481106110295761102961171d565b6000918252602082200154600580546001600160a01b0319166001600160a01b039283161790558154166001600160a01b031660646110694760146115da565b611073919061160f565b604051600081818185875af1925050503d80600081146110af576040519150601f19603f3d011682016040523d82523d6000602084013e6110b4565b606091505b50509050806110d55760405162e4a00960e51b815260040160405180910390fd5b6005546040516000916001600160a01b03169047908381818185875af1925050503d8060008114611122576040519150601f19603f3d011682016040523d82523d6000602084013e611127565b606091505b50509050806111485760405162e4a00960e51b815260040160405180910390fd5b60005b6004548110156111b4576000600360006004848154811061116e5761116e61171d565b6000918252602080832091909101546001600160a01b031683528201929092526040019020805460ff1916911515919091179055806111ac81611747565b91505061114b565b5060408051600081526020810191829052516111d291600491611284565b506009805460ff60601b1916600160601b1790556005546040517f3cd1e164378087c10fd92c32274b2ab5a3536fe9fc7f3093db21479a5639a1f291611225916001600160a01b03909116908790611762565b60405180910390a15050505050565b600080546001600160a01b038381166001600160a01b0319831681178455604051919092169283917f8be0079c531659141344cd1fd0a4f28419497f9722a3daafe3b4186f6b6457e09190a35050565b8280548282559060005260206000209081019282156112d9579160200282015b828111156112d957825182546001600160a01b0319166001600160a01b039091161782556020909201916001909101906112a4565b506112e59291506112e9565b5090565b5b808211156112e557600081556001016112ea565b634e487b7160e01b600052604160045260246000fd5b604051601f8201601f1916810167ffffffffffffffff8111828210171561133d5761133d6112fe565b604052919050565b6000806040838503121561135857600080fd5b8235915060208084013567ffffffffffffffff8082111561137857600080fd5b818601915086601f83011261138c57600080fd5b81358181111561139e5761139e6112fe565b8060051b91506113af848301611314565b81815291830184019184810190898411156113c957600080fd5b938501935b838510156113e7578435825293850193908501906113ce565b8096505050505050509250929050565b60006020828403121561140957600080fd5b81356001600160a01b038116811461142057600080fd5b9392505050565b60006020828403121561143957600080fd5b5035919050565b60006020828403121561145257600080fd5b813561ffff8116811461142057600080fd5b60006020828403121561147657600080fd5b813563ffffffff8116811461142057600080fd5b60005b838110156114a557818101518382015260200161148d565b838111156114b4576000848401525b50505050565b60208152600082518060208401526114d981604085016020870161148a565b601f01601f19169190910160400192915050565b634e487b7160e01b600052602160045260246000fd5b602081016003831061152557634e487b7160e01b600052602160045260246000fd5b91905290565b60006020828403121561153d57600080fd5b813567ffffffffffffffff8116811461142057600080fd5b805169ffffffffffffffffffff8116811461156f57600080fd5b919050565b600080600080600060a0868803121561158c57600080fd5b61159586611555565b94506020860151935060408601519250606086015191506115b860808701611555565b90509295509295909350565b634e487b7160e01b600052601160045260246000fd5b60008160001904831182151516156115f4576115f46115c4565b500290565b634e487b7160e01b600052601260045260246000fd5b60008261161e5761161e6115f9565b500490565b6020808252818101527f4f776e61626c653a2063616c6c6572206973206e6f7420746865206f776e6572604082015260600190565b60006020828403121561166a57600080fd5b5051919050565b60008219821115611684576116846115c4565b500190565b60006020828403121561169b57600080fd5b815167ffffffffffffffff808211156116b357600080fd5b818401915084601f8301126116c757600080fd5b8151818111156116d9576116d96112fe565b6116ec601f8201601f1916602001611314565b915080825285602082850101111561170357600080fd5b61171481602084016020860161148a565b50949350505050565b634e487b7160e01b600052603260045260246000fd5b600082611742576117426115f9565b500690565b600060001982141561175b5761175b6115c4565b5060010190565b6001600160a01b038316815260406020808301829052835191830182905260009184820191906060850190845b818110156117ab5784518352938301939183019160010161178f565b509097965050505050505056fea2646970667358221220f8849306d288d5b7fb3de3f2a28097894935383e16f505729694ea71319f823764736f6c63430008090033",
  "devdoc": {
    "kind": "dev",
    "methods": {
      "owner()": {
        "details": "Returns the address of the current owner."
      },
      "renounceOwnership()": {
        "details": "Leaves the contract without owner. It will not be possible to call `onlyOwner` functions anymore. Can only be called by the current owner. NOTE: Renouncing ownership will leave the contract without an owner, thereby removing any functionality that is only available to the owner."
      },
      "transferOwnership(address)": {
        "details": "Transfers ownership of the contract to a new account (`newOwner`). Can only be called by the current owner."
      }
    },
    "version": 1
  },
  "userdoc": {
    "kind": "user",
    "methods": {
      "disperseFunds()": {
        "notice": "- This function is used as a backup in case the VRF node fails to call the fulfillRandomWords() function."
      }
    },
    "version": 1
  },
  "storageLayout": {
    "storage": [
      {
        "astId": 874,
        "contract": "contracts/Lottery.sol:Lottery",
        "label": "_owner",
        "offset": 0,
        "slot": "0",
        "type": "t_address"
      },
      {
        "astId": 1018,
        "contract": "contracts/Lottery.sol:Lottery",
        "label": "s_entranceFeeInUsd",
        "offset": 0,
        "slot": "1",
        "type": "t_int256"
      },
      {
        "astId": 1025,
        "contract": "contracts/Lottery.sol:Lottery",
        "label": "s_addressToAmountDeposited",
        "offset": 0,
        "slot": "2",
        "type": "t_mapping(t_address,t_uint256)"
      },
      {
        "astId": 1029,
        "contract": "contracts/Lottery.sol:Lottery",
        "label": "s_isParticipant",
        "offset": 0,
        "slot": "3",
        "type": "t_mapping(t_address,t_bool)"
      },
      {
        "astId": 1032,
        "contract": "contracts/Lottery.sol:Lottery",
        "label": "s_participants",
        "offset": 0,
        "slot": "4",
        "type": "t_array(t_address)dyn_storage"
      },
      {
        "astId": 1034,
        "contract": "contracts/Lottery.sol:Lottery",
        "label": "s_recentWinner",
        "offset": 0,
        "slot": "5",
        "type": "t_address_payable"
      },
      {
        "astId": 1036,
        "contract": "contracts/Lottery.sol:Lottery",
        "label": "s_requestId",
        "offset": 0,
        "slot": "6",
        "type": "t_uint256"
      },
      {
        "astId": 1038,
        "contract": "contracts/Lottery.sol:Lottery",
        "label": "s_minParticpantsLimit",
        "offset": 0,
        "slot": "7",
        "type": "t_uint256"
      },
      {
        "astId": 1040,
        "contract": "contracts/Lottery.sol:Lottery",
        "label": "s_lotteryEndTimestamp",
        "offset": 0,
        "slot": "8",
        "type": "t_uint256"
      },
      {
        "astId": 1043,
        "contract": "contracts/Lottery.sol:Lottery",
        "label": "s_lotteryDuration",
        "offset": 0,
        "slot": "9",
        "type": "t_uint32"
      },
      {
        "astId": 1045,
        "contract": "contracts/Lottery.sol:Lottery",
        "label": "s_subscriptionId",
        "offset": 4,
        "slot": "9",
        "type": "t_uint64"
      },
      {
        "astId": 1048,
        "contract": "contracts/Lottery.sol:Lottery",
        "label": "s_lotteryState",
        "offset": 12,
        "slot": "9",
        "type": "t_enum(LotteryState)1016"
      },
      {
        "astId": 1051,
        "contract": "contracts/Lottery.sol:Lottery",
        "label": "s_priceFeed",
        "offset": 0,
        "slot": "10",
        "type": "t_contract(AggregatorV3Interface)103"
      },
      {
        "astId": 1054,
        "contract": "contracts/Lottery.sol:Lottery",
        "label": "s_keyHash",
        "offset": 0,
        "slot": "11",
        "type": "t_bytes32"
      },
      {
        "astId": 1057,
        "contract": "contracts/Lottery.sol:Lottery",
        "label": "s_callbackGasLimit",
        "offset": 0,
        "slot": "12",
        "type": "t_uint32"
      },
      {
        "astId": 1060,
        "contract": "contracts/Lottery.sol:Lottery",
        "label": "s_requestConfirmations",
        "offset": 4,
        "slot": "12",
        "type": "t_uint16"
      }
    ],
    "types": {
      "t_address": {
        "encoding": "inplace",
        "label": "address",
        "numberOfBytes": "20"
      },
      "t_address_payable": {
        "encoding": "inplace",
        "label": "address payable",
        "numberOfBytes": "20"
      },
      "t_array(t_address)dyn_storage": {
        "base": "t_address",
        "encoding": "dynamic_array",
        "label": "address[]",
        "numberOfBytes": "32"
      },
      "t_bool": {
        "encoding": "inplace",
        "label": "bool",
        "numberOfBytes": "1"
      },
      "t_bytes32": {
        "encoding": "inplace",
        "label": "bytes32",
        "numberOfBytes": "32"
      },
      "t_contract(AggregatorV3Interface)103": {
        "encoding": "inplace",
        "label": "contract AggregatorV3Interface",
        "numberOfBytes": "20"
      },
      "t_enum(LotteryState)1016": {
        "encoding": "inplace",
        "label": "enum Lottery.LotteryState",
        "numberOfBytes": "1"
      },
      "t_int256": {
        "encoding": "inplace",
        "label": "int256",
        "numberOfBytes": "32"
      },
      "t_mapping(t_address,t_bool)": {
        "encoding": "mapping",
        "key": "t_address",
        "label": "mapping(address => bool)",
        "numberOfBytes": "32",
        "value": "t_bool"
      },
      "t_mapping(t_address,t_uint256)": {
        "encoding": "mapping",
        "key": "t_address",
        "label": "mapping(address => uint256)",
        "numberOfBytes": "32",
        "value": "t_uint256"
      },
      "t_uint16": {
        "encoding": "inplace",
        "label": "uint16",
        "numberOfBytes": "2"
      },
      "t_uint256": {
        "encoding": "inplace",
        "label": "uint256",
        "numberOfBytes": "32"
      },
      "t_uint32": {
        "encoding": "inplace",
        "label": "uint32",
        "numberOfBytes": "4"
      },
      "t_uint64": {
        "encoding": "inplace",
        "label": "uint64",
        "numberOfBytes": "8"
      }
    }
  }
}