{
  "address": "0xe5c442C7e6Dde130Fe1f9bbe9813fd5f749b8026",
  "abi": [
    {
      "inputs": [
        {
          "internalType": "uint256",
          "name": "_minParticpantsLimit",
          "type": "uint256"
        },
        {
          "internalType": "address",
          "name": "_priceFeed",
          "type": "address"
        },
        {
          "internalType": "address",
          "name": "_vrfCoordinator",
          "type": "address"
        },
        {
          "internalType": "int256",
          "name": "_entranceFeeInUsdinFixedPoint",
          "type": "int256"
        },
        {
          "internalType": "uint64",
          "name": "_subscriptionId",
          "type": "uint64"
        }
      ],
      "stateMutability": "nonpayable",
      "type": "constructor"
    },
    {
      "inputs": [],
      "name": "Lottery__LotteryNotOpen",
      "type": "error"
    },
    {
      "inputs": [],
      "name": "Lottery__ParticipantCountIsLow",
      "type": "error"
    },
    {
      "inputs": [],
      "name": "Lottery__SendMoreToEnterLottery",
      "type": "error"
    },
    {
      "inputs": [],
      "name": "Lottery__TransferFailed",
      "type": "error"
    },
    {
      "inputs": [
        {
          "internalType": "address",
          "name": "have",
          "type": "address"
        },
        {
          "internalType": "address",
          "name": "want",
          "type": "address"
        }
      ],
      "name": "OnlyCoordinatorCanFulfill",
      "type": "error"
    },
    {
      "anonymous": false,
      "inputs": [
        {
          "indexed": true,
          "internalType": "address",
          "name": "previousOwner",
          "type": "address"
        },
        {
          "indexed": true,
          "internalType": "address",
          "name": "newOwner",
          "type": "address"
        }
      ],
      "name": "OwnershipTransferred",
      "type": "event"
    },
    {
      "anonymous": false,
      "inputs": [
        {
          "indexed": false,
          "internalType": "address",
          "name": "_participant",
          "type": "address"
        },
        {
          "indexed": false,
          "internalType": "uint256",
          "name": "_amountDeposited",
          "type": "uint256"
        }
      ],
      "name": "PlayerEnteredLottery",
      "type": "event"
    },
    {
      "anonymous": false,
      "inputs": [
        {
          "indexed": false,
          "internalType": "address",
          "name": "_recentWinner",
          "type": "address"
        },
        {
          "indexed": false,
          "internalType": "uint256[]",
          "name": "_randomWords",
          "type": "uint256[]"
        }
      ],
      "name": "WinnerGotMoney",
      "type": "event"
    },
    {
      "inputs": [],
      "name": "endLottery",
      "outputs": [],
      "stateMutability": "nonpayable",
      "type": "function"
    },
    {
      "inputs": [],
      "name": "enter",
      "outputs": [],
      "stateMutability": "payable",
      "type": "function"
    },
    {
      "inputs": [],
      "name": "getEntranceFee",
      "outputs": [
        {
          "internalType": "uint256",
          "name": "",
          "type": "uint256"
        }
      ],
      "stateMutability": "view",
      "type": "function"
    },
    {
      "inputs": [],
      "name": "getLatestRoundData",
      "outputs": [
        {
          "internalType": "uint80",
          "name": "roundId",
          "type": "uint80"
        },
        {
          "internalType": "int256",
          "name": "answer",
          "type": "int256"
        },
        {
          "internalType": "uint256",
          "name": "startedAt",
          "type": "uint256"
        },
        {
          "internalType": "uint256",
          "name": "updatedAt",
          "type": "uint256"
        },
        {
          "internalType": "uint80",
          "name": "answeredInRound",
          "type": "uint80"
        }
      ],
      "stateMutability": "view",
      "type": "function"
    },
    {
      "inputs": [],
      "name": "getParticipantsLen",
      "outputs": [
        {
          "internalType": "uint256",
          "name": "",
          "type": "uint256"
        }
      ],
      "stateMutability": "view",
      "type": "function"
    },
    {
      "inputs": [],
      "name": "getPriceFeedName",
      "outputs": [
        {
          "internalType": "string",
          "name": "",
          "type": "string"
        }
      ],
      "stateMutability": "view",
      "type": "function"
    },
    {
      "inputs": [],
      "name": "i_vrfCoordinator",
      "outputs": [
        {
          "internalType": "contract VRFCoordinatorV2Interface",
          "name": "",
          "type": "address"
        }
      ],
      "stateMutability": "view",
      "type": "function"
    },
    {
      "inputs": [],
      "name": "owner",
      "outputs": [
        {
          "internalType": "address",
          "name": "",
          "type": "address"
        }
      ],
      "stateMutability": "view",
      "type": "function"
    },
    {
      "inputs": [
        {
          "internalType": "uint256",
          "name": "requestId",
          "type": "uint256"
        },
        {
          "internalType": "uint256[]",
          "name": "randomWords",
          "type": "uint256[]"
        }
      ],
      "name": "rawFulfillRandomWords",
      "outputs": [],
      "stateMutability": "nonpayable",
      "type": "function"
    },
    {
      "inputs": [],
      "name": "renounceOwnership",
      "outputs": [],
      "stateMutability": "nonpayable",
      "type": "function"
    },
    {
      "inputs": [
        {
          "internalType": "address",
          "name": "",
          "type": "address"
        }
      ],
      "name": "s_addressToAmountDeposited",
      "outputs": [
        {
          "internalType": "uint256",
          "name": "",
          "type": "uint256"
        }
      ],
      "stateMutability": "view",
      "type": "function"
    },
    {
      "inputs": [],
      "name": "s_entranceFeeInUsd",
      "outputs": [
        {
          "internalType": "int256",
          "name": "",
          "type": "int256"
        }
      ],
      "stateMutability": "view",
      "type": "function"
    },
    {
      "inputs": [
        {
          "internalType": "address",
          "name": "",
          "type": "address"
        }
      ],
      "name": "s_isParticipant",
      "outputs": [
        {
          "internalType": "bool",
          "name": "",
          "type": "bool"
        }
      ],
      "stateMutability": "view",
      "type": "function"
    },
    {
      "inputs": [],
      "name": "s_lotteryDuration",
      "outputs": [
        {
          "internalType": "uint32",
          "name": "",
          "type": "uint32"
        }
      ],
      "stateMutability": "view",
      "type": "function"
    },
    {
      "inputs": [],
      "name": "s_lotteryEndTimestamp",
      "outputs": [
        {
          "internalType": "uint256",
          "name": "",
          "type": "uint256"
        }
      ],
      "stateMutability": "view",
      "type": "function"
    },
    {
      "inputs": [],
      "name": "s_lotteryState",
      "outputs": [
        {
          "internalType": "enum Lottery.LotteryState",
          "name": "",
          "type": "uint8"
        }
      ],
      "stateMutability": "view",
      "type": "function"
    },
    {
      "inputs": [],
      "name": "s_minParticpantsLimit",
      "outputs": [
        {
          "internalType": "uint256",
          "name": "",
          "type": "uint256"
        }
      ],
      "stateMutability": "view",
      "type": "function"
    },
    {
      "inputs": [
        {
          "internalType": "uint256",
          "name": "",
          "type": "uint256"
        }
      ],
      "name": "s_participants",
      "outputs": [
        {
          "internalType": "address",
          "name": "",
          "type": "address"
        }
      ],
      "stateMutability": "view",
      "type": "function"
    },
    {
      "inputs": [],
      "name": "s_priceFeed",
      "outputs": [
        {
          "internalType": "contract AggregatorV3Interface",
          "name": "",
          "type": "address"
        }
      ],
      "stateMutability": "view",
      "type": "function"
    },
    {
      "inputs": [],
      "name": "s_recentWinner",
      "outputs": [
        {
          "internalType": "address payable",
          "name": "",
          "type": "address"
        }
      ],
      "stateMutability": "view",
      "type": "function"
    },
    {
      "inputs": [],
      "name": "s_requestId",
      "outputs": [
        {
          "internalType": "uint256",
          "name": "",
          "type": "uint256"
        }
      ],
      "stateMutability": "view",
      "type": "function"
    },
    {
      "inputs": [],
      "name": "s_subscriptionId",
      "outputs": [
        {
          "internalType": "uint64",
          "name": "",
          "type": "uint64"
        }
      ],
      "stateMutability": "view",
      "type": "function"
    },
    {
      "inputs": [
        {
          "internalType": "int256",
          "name": "_entranceFeeInUsdinFixedPoint",
          "type": "int256"
        }
      ],
      "name": "setEntranceFee",
      "outputs": [],
      "stateMutability": "nonpayable",
      "type": "function"
    },
    {
      "inputs": [
        {
          "internalType": "uint32",
          "name": "_durationInSecs",
          "type": "uint32"
        }
      ],
      "name": "setLotteryDuration",
      "outputs": [],
      "stateMutability": "nonpayable",
      "type": "function"
    },
    {
      "inputs": [
        {
          "internalType": "uint256",
          "name": "_newLimit",
          "type": "uint256"
        }
      ],
      "name": "setMinParticipantsLimit",
      "outputs": [],
      "stateMutability": "nonpayable",
      "type": "function"
    },
    {
      "inputs": [],
      "name": "startLottery",
      "outputs": [],
      "stateMutability": "nonpayable",
      "type": "function"
    },
    {
      "inputs": [
        {
          "internalType": "address",
          "name": "newOwner",
          "type": "address"
        }
      ],
      "name": "transferOwnership",
      "outputs": [],
      "stateMutability": "nonpayable",
      "type": "function"
    }
  ],
  "transactionHash": "0x9083b1923c10ed7cf144787658920bbdcc51beb1f525f1b6f49df53f0d9feb0c",
  "args": [
    3,
    "0xd0D5e3DB44DE05E9F294BB0a3bEEaF030DE24Ada",
    "0x7a1BaC17Ccc5b313516C5E16fb24f7659aA5ebed",
    50,
    "2223"
  ],
  "numDeployments": 5,
  "solcInputHash": "41977de3105a25b0a3b1a2d9306c14cd",
  "bytecode": "0x60c06040526009805463ffffffff1916620151801790553480156200002357600080fd5b506040516200166a3803806200166a833981016040819052620000469162000137565b6001600160a01b0383166080526200005e33620000ca565b600191909155600a80546001600160a01b0319166001600160a01b03948516179055600980546c010000000000000000000000006001600160401b0390931664010000000002600160201b600160681b0319909116179190911790556007929092551660a052620001a5565b600080546001600160a01b038381166001600160a01b0319831681178455604051919092169283917f8be0079c531659141344cd1fd0a4f28419497f9722a3daafe3b4186f6b6457e09190a35050565b80516001600160a01b03811681146200013257600080fd5b919050565b600080600080600060a086880312156200015057600080fd5b8551945062000162602087016200011a565b935062000172604087016200011a565b6060870151608088015191945092506001600160401b03811681146200019757600080fd5b809150509295509295909350565b60805160a051611491620001d96000396000818161048a0152610701015260008181610806015261084801526114916000f3fe60806040526004361061019c5760003560e01c806379c73bdb116100ec578063aff6d8441161008a578063e59769d711610064578063e59769d714610512578063e89e106a14610528578063e97dcb621461053e578063f2fde38b1461054657600080fd5b8063aff6d844146104ac578063be3fbee5146104ce578063d4c8c373146104e457600080fd5b80638da5cb5b116100c65780638da5cb5b1461041a5780638df5a6a414610438578063a732edba14610458578063aebc45501461047857600080fd5b806379c73bdb146103985780638638b0c6146103b85780638ac00021146103d857600080fd5b806320dff34e116101595780634399076e116101335780634399076e1461031c5780635d91bb821461033c578063639a732e14610351578063715018a61461038357600080fd5b806320dff34e1461026357806328498d92146102a35780632daae2f3146102d057600080fd5b806309bc33a7146101a15780630c216d6e146101c95780630ec3b027146101df5780631593a8c714610217578063160344e21461022e5780631fe543e314610243575b600080fd5b3480156101ad57600080fd5b506101b6610566565b6040519081526020015b60405180910390f35b3480156101d557600080fd5b506101b660085481565b3480156101eb57600080fd5b50600a546101ff906001600160a01b031681565b6040516001600160a01b0390911681526020016101c0565b34801561022357600080fd5b5061022c610623565b005b34801561023a57600080fd5b5061022c610782565b34801561024f57600080fd5b5061022c61025e366004611036565b6107fb565b34801561026f57600080fd5b5061029361027e3660046110e8565b60036020526000908152604090205460ff1681565b60405190151581526020016101c0565b3480156102af57600080fd5b506101b66102be3660046110e8565b60026020526000908152604090205481565b3480156102dc57600080fd5b506102e5610883565b6040805169ffffffffffffffffffff968716815260208101959095528401929092526060830152909116608082015260a0016101c0565b34801561032857600080fd5b5061022c610337366004611118565b610922565b34801561034857600080fd5b506004546101b6565b34801561035d57600080fd5b5060095461036e9063ffffffff1681565b60405163ffffffff90911681526020016101c0565b34801561038f57600080fd5b5061022c610951565b3480156103a457600080fd5b5061022c6103b3366004611118565b610987565b3480156103c457600080fd5b506005546101ff906001600160a01b031681565b3480156103e457600080fd5b5060095461040190640100000000900467ffffffffffffffff1681565b60405167ffffffffffffffff90911681526020016101c0565b34801561042657600080fd5b506000546001600160a01b03166101ff565b34801561044457600080fd5b506101ff610453366004611118565b6109b6565b34801561046457600080fd5b5061022c610473366004611131565b6109e0565b34801561048457600080fd5b506101ff7f000000000000000000000000000000000000000000000000000000000000000081565b3480156104b857600080fd5b506104c1610a26565b6040516101c09190611187565b3480156104da57600080fd5b506101b660075481565b3480156104f057600080fd5b5060095461050590600160601b900460ff1681565b6040516101c091906111d0565b34801561051e57600080fd5b506101b660015481565b34801561053457600080fd5b506101b660065481565b61022c610aac565b34801561055257600080fd5b5061022c6105613660046110e8565b610bcf565b600080600a60009054906101000a90046001600160a01b03166001600160a01b031663feaf968c6040518163ffffffff1660e01b815260040160a06040518083038186803b1580156105b757600080fd5b505afa1580156105cb573d6000803e3d6000fd5b505050506040513d601f19601f820116820180604052508101906105ef9190611217565b5050600154919350909150600090508261061183670de0b6b3a764000061127d565b61061b91906112b2565b949350505050565b6000546001600160a01b031633146106565760405162461bcd60e51b815260040161064d906112c6565b60405180910390fd5b600754600454101561067b57604051631f54a6e160e21b815260040160405180910390fd5b60098054600160611b60ff60601b1990911617908190556040516305d3b1d360e41b81527f4b09e658ed251bcafeebbc69400383d49f344ace09b9576fe248bb02c003fe9f600482015267ffffffffffffffff64010000000090920491909116602482015260036044820152620186a06064820152600160848201526001600160a01b037f00000000000000000000000000000000000000000000000000000000000000001690635d3b1d309060a401602060405180830381600087803b15801561074557600080fd5b505af1158015610759573d6000803e3d6000fd5b505050506040513d601f19601f8201168201806040525081019061077d91906112fb565b600655565b6000546001600160a01b031633146107ac5760405162461bcd60e51b815260040161064d906112c6565b6001600954600160601b900460ff1660028111156107cc576107cc6111ba565b146107d657600080fd5b6009546107e99063ffffffff1642611314565b6008556009805460ff60601b19169055565b336001600160a01b037f000000000000000000000000000000000000000000000000000000000000000016146108755760405163073e64fd60e21b81523360048201526001600160a01b037f000000000000000000000000000000000000000000000000000000000000000016602482015260440161064d565b61087f8282610c6a565b5050565b6000806000806000600a60009054906101000a90046001600160a01b03166001600160a01b031663feaf968c6040518163ffffffff1660e01b815260040160a06040518083038186803b1580156108d957600080fd5b505afa1580156108ed573d6000803e3d6000fd5b505050506040513d601f19601f820116820180604052508101906109119190611217565b945094509450945094509091929394565b6000546001600160a01b0316331461094c5760405162461bcd60e51b815260040161064d906112c6565b600755565b6000546001600160a01b0316331461097b5760405162461bcd60e51b815260040161064d906112c6565b6109856000610f25565b565b6000546001600160a01b031633146109b15760405162461bcd60e51b815260040161064d906112c6565b600155565b600481815481106109c657600080fd5b6000918252602090912001546001600160a01b0316905081565b6000546001600160a01b03163314610a0a5760405162461bcd60e51b815260040161064d906112c6565b6009805463ffffffff191663ffffffff92909216919091179055565b600a5460408051633942720b60e11b815290516060926001600160a01b031691637284e416916004808301926000929190829003018186803b158015610a6b57600080fd5b505afa158015610a7f573d6000803e3d6000fd5b505050506040513d6000823e601f3d908101601f19168201604052610aa7919081019061132c565b905090565b6000600954600160601b900460ff166002811115610acc57610acc6111ba565b14610aea5760405163823ea8bb60e01b815260040160405180910390fd5b610af2610566565b341015610b1257604051632901e30960e21b815260040160405180910390fd5b3360009081526003602052604090205460ff16610b6c57600480546001810182556000919091527f8a35acfbc15ff81a39ae7d344fd709f28e8600b4aa8c65c6b64bfe7fe36bd19b0180546001600160a01b031916331790555b33600081815260026020908152604080832034908190556003835292819020805460ff191660011790558051938452908301919091527ff95d19afcfb10921fb16ee6d59fa06900c0b95dd3ef561635442287c95f1f91d910160405180910390a1565b6000546001600160a01b03163314610bf95760405162461bcd60e51b815260040161064d906112c6565b6001600160a01b038116610c5e5760405162461bcd60e51b815260206004820152602660248201527f4f776e61626c653a206e6577206f776e657220697320746865207a65726f206160448201526564647265737360d01b606482015260840161064d565b610c6781610f25565b50565b6002600954600160601b900460ff166002811115610c8a57610c8a6111ba565b14610c9457600080fd5b600081600081518110610ca957610ca96113c0565b602002602001015111610cbb57600080fd5b6000815111610cc957600080fd5b600060048054905082600081518110610ce457610ce46113c0565b6020026020010151610cf691906113d6565b6004549091508110610d0757600080fd5b60048181548110610d1a57610d1a6113c0565b6000918252602082200154600580546001600160a01b0319166001600160a01b039283161790558154166001600160a01b03166064610d5a47601461127d565b610d6491906112b2565b604051600081818185875af1925050503d8060008114610da0576040519150601f19603f3d011682016040523d82523d6000602084013e610da5565b606091505b5050905080610dc65760405162e4a00960e51b815260040160405180910390fd5b6005546040516000916001600160a01b03169047908381818185875af1925050503d8060008114610e13576040519150601f19603f3d011682016040523d82523d6000602084013e610e18565b606091505b5050905080610e395760405162e4a00960e51b815260040160405180910390fd5b60005b600454811015610ea55760006003600060048481548110610e5f57610e5f6113c0565b6000918252602080832091909101546001600160a01b031683528201929092526040019020805460ff191691151591909117905580610e9d816113ea565b915050610e3c565b506040805160008152602081019182905251610ec391600491610f75565b506009805460ff60601b1916600160601b1790556005546040517f3cd1e164378087c10fd92c32274b2ab5a3536fe9fc7f3093db21479a5639a1f291610f16916001600160a01b03909116908790611405565b60405180910390a15050505050565b600080546001600160a01b038381166001600160a01b0319831681178455604051919092169283917f8be0079c531659141344cd1fd0a4f28419497f9722a3daafe3b4186f6b6457e09190a35050565b828054828255906000526020600020908101928215610fca579160200282015b82811115610fca57825182546001600160a01b0319166001600160a01b03909116178255602090920191600190910190610f95565b50610fd6929150610fda565b5090565b5b80821115610fd65760008155600101610fdb565b634e487b7160e01b600052604160045260246000fd5b604051601f8201601f1916810167ffffffffffffffff8111828210171561102e5761102e610fef565b604052919050565b6000806040838503121561104957600080fd5b8235915060208084013567ffffffffffffffff8082111561106957600080fd5b818601915086601f83011261107d57600080fd5b81358181111561108f5761108f610fef565b8060051b91506110a0848301611005565b81815291830184019184810190898411156110ba57600080fd5b938501935b838510156110d8578435825293850193908501906110bf565b8096505050505050509250929050565b6000602082840312156110fa57600080fd5b81356001600160a01b038116811461111157600080fd5b9392505050565b60006020828403121561112a57600080fd5b5035919050565b60006020828403121561114357600080fd5b813563ffffffff8116811461111157600080fd5b60005b8381101561117257818101518382015260200161115a565b83811115611181576000848401525b50505050565b60208152600082518060208401526111a6816040850160208701611157565b601f01601f19169190910160400192915050565b634e487b7160e01b600052602160045260246000fd5b60208101600383106111f257634e487b7160e01b600052602160045260246000fd5b91905290565b805169ffffffffffffffffffff8116811461121257600080fd5b919050565b600080600080600060a0868803121561122f57600080fd5b611238866111f8565b945060208601519350604086015192506060860151915061125b608087016111f8565b90509295509295909350565b634e487b7160e01b600052601160045260246000fd5b600081600019048311821515161561129757611297611267565b500290565b634e487b7160e01b600052601260045260246000fd5b6000826112c1576112c161129c565b500490565b6020808252818101527f4f776e61626c653a2063616c6c6572206973206e6f7420746865206f776e6572604082015260600190565b60006020828403121561130d57600080fd5b5051919050565b6000821982111561132757611327611267565b500190565b60006020828403121561133e57600080fd5b815167ffffffffffffffff8082111561135657600080fd5b818401915084601f83011261136a57600080fd5b81518181111561137c5761137c610fef565b61138f601f8201601f1916602001611005565b91508082528560208285010111156113a657600080fd5b6113b7816020840160208601611157565b50949350505050565b634e487b7160e01b600052603260045260246000fd5b6000826113e5576113e561129c565b500690565b60006000198214156113fe576113fe611267565b5060010190565b6001600160a01b038316815260406020808301829052835191830182905260009184820191906060850190845b8181101561144e57845183529383019391830191600101611432565b509097965050505050505056fea2646970667358221220a44416bca646fced24e1e10456a4f626ebe3930d7d25f7e78f2883b5e2fec58b64736f6c63430008090033",
  "devdoc": {
    "kind": "dev",
    "methods": {
      "owner()": {
        "details": "Returns the address of the current owner."
      },
      "renounceOwnership()": {
        "details": "Leaves the contract without owner. It will not be possible to call `onlyOwner` functions anymore. Can only be called by the current owner. NOTE: Renouncing ownership will leave the contract without an owner, thereby removing any functionality that is only available to the owner."
      },
      "transferOwnership(address)": {
        "details": "Transfers ownership of the contract to a new account (`newOwner`). Can only be called by the current owner."
      }
    },
    "version": 1
  },
  "userdoc": {
    "kind": "user",
    "methods": {},
    "version": 1
  },
  "storageLayout": {
    "storage": [
      {
        "astId": 874,
        "contract": "contracts/Lottery.sol:Lottery",
        "label": "_owner",
        "offset": 0,
        "slot": "0",
        "type": "t_address"
      },
      {
        "astId": 1018,
        "contract": "contracts/Lottery.sol:Lottery",
        "label": "s_entranceFeeInUsd",
        "offset": 0,
        "slot": "1",
        "type": "t_int256"
      },
      {
        "astId": 1025,
        "contract": "contracts/Lottery.sol:Lottery",
        "label": "s_addressToAmountDeposited",
        "offset": 0,
        "slot": "2",
        "type": "t_mapping(t_address,t_uint256)"
      },
      {
        "astId": 1029,
        "contract": "contracts/Lottery.sol:Lottery",
        "label": "s_isParticipant",
        "offset": 0,
        "slot": "3",
        "type": "t_mapping(t_address,t_bool)"
      },
      {
        "astId": 1032,
        "contract": "contracts/Lottery.sol:Lottery",
        "label": "s_participants",
        "offset": 0,
        "slot": "4",
        "type": "t_array(t_address)dyn_storage"
      },
      {
        "astId": 1034,
        "contract": "contracts/Lottery.sol:Lottery",
        "label": "s_recentWinner",
        "offset": 0,
        "slot": "5",
        "type": "t_address_payable"
      },
      {
        "astId": 1036,
        "contract": "contracts/Lottery.sol:Lottery",
        "label": "s_requestId",
        "offset": 0,
        "slot": "6",
        "type": "t_uint256"
      },
      {
        "astId": 1038,
        "contract": "contracts/Lottery.sol:Lottery",
        "label": "s_minParticpantsLimit",
        "offset": 0,
        "slot": "7",
        "type": "t_uint256"
      },
      {
        "astId": 1040,
        "contract": "contracts/Lottery.sol:Lottery",
        "label": "s_lotteryEndTimestamp",
        "offset": 0,
        "slot": "8",
        "type": "t_uint256"
      },
      {
        "astId": 1043,
        "contract": "contracts/Lottery.sol:Lottery",
        "label": "s_lotteryDuration",
        "offset": 0,
        "slot": "9",
        "type": "t_uint32"
      },
      {
        "astId": 1045,
        "contract": "contracts/Lottery.sol:Lottery",
        "label": "s_subscriptionId",
        "offset": 4,
        "slot": "9",
        "type": "t_uint64"
      },
      {
        "astId": 1048,
        "contract": "contracts/Lottery.sol:Lottery",
        "label": "s_lotteryState",
        "offset": 12,
        "slot": "9",
        "type": "t_enum(LotteryState)1016"
      },
      {
        "astId": 1051,
        "contract": "contracts/Lottery.sol:Lottery",
        "label": "s_priceFeed",
        "offset": 0,
        "slot": "10",
        "type": "t_contract(AggregatorV3Interface)103"
      }
    ],
    "types": {
      "t_address": {
        "encoding": "inplace",
        "label": "address",
        "numberOfBytes": "20"
      },
      "t_address_payable": {
        "encoding": "inplace",
        "label": "address payable",
        "numberOfBytes": "20"
      },
      "t_array(t_address)dyn_storage": {
        "base": "t_address",
        "encoding": "dynamic_array",
        "label": "address[]",
        "numberOfBytes": "32"
      },
      "t_bool": {
        "encoding": "inplace",
        "label": "bool",
        "numberOfBytes": "1"
      },
      "t_contract(AggregatorV3Interface)103": {
        "encoding": "inplace",
        "label": "contract AggregatorV3Interface",
        "numberOfBytes": "20"
      },
      "t_enum(LotteryState)1016": {
        "encoding": "inplace",
        "label": "enum Lottery.LotteryState",
        "numberOfBytes": "1"
      },
      "t_int256": {
        "encoding": "inplace",
        "label": "int256",
        "numberOfBytes": "32"
      },
      "t_mapping(t_address,t_bool)": {
        "encoding": "mapping",
        "key": "t_address",
        "label": "mapping(address => bool)",
        "numberOfBytes": "32",
        "value": "t_bool"
      },
      "t_mapping(t_address,t_uint256)": {
        "encoding": "mapping",
        "key": "t_address",
        "label": "mapping(address => uint256)",
        "numberOfBytes": "32",
        "value": "t_uint256"
      },
      "t_uint256": {
        "encoding": "inplace",
        "label": "uint256",
        "numberOfBytes": "32"
      },
      "t_uint32": {
        "encoding": "inplace",
        "label": "uint32",
        "numberOfBytes": "4"
      },
      "t_uint64": {
        "encoding": "inplace",
        "label": "uint64",
        "numberOfBytes": "8"
      }
    }
  }
}